:100000000C9472000C9493000C9493000C94930045
:100010000C9493000C9493000C9493000C94930014
:100020000C9493000C9493000C9493000C94930004
:100030000C9493000C9493000C9493000C949300F4
:100040000C9493000C9493000C9493000C949300E4
:100050000C9493000C9493000C9493000C949300D4
:100060000C9493000C9493000C9493000C949300C4
:100070000C9493000C9493000C9493000C949300B4
:100080000C9493000C9493000C9493000C949300A4
:100090000C9493000C9493000C9493000C94930094
:1000A0000C9493000C9493000C9493000C94930084
:1000B0000C9493000C9493000C9493000C94930074
:1000C0000C9493000C9493000C9493000C94930064
:1000D0000C9493000C9493000C9493000C94930054
:1000E0000C94930011241FBECFEFD1E2DEBFCDBF31
:1000F00000E00CBF13E0A0E0B2E0E0E3F7E000E0D6
:100100000BBF02C007900D92A43EB107D9F713E0D0
:10011000A4EEB3E001C01D92A73EB107E1F70E9433
:1001200095000C9496030C940000CF93DF930E94EB
:10013000AC000E940503C0E9D1E084E00E94BE0249
:1001400080E092E00E94B10280E197E2FE013197E7
:10015000F1F70197D9F7F1CF88E08093C10086E0ED
:100160008093C20087E68093C4000895982F809101
:10017000C00085FFFCCF9093C60008959C01DC0170
:100180000D900020E9F71197A81BB90B90E00AC069
:10019000E20FF31F40818091C00085FFFCCF4093A8
:1001A000C6009F5FE92FF0E0EA17FB0788F3089588
:1001B000E9EBF0E080818C7F808383E18093B8005D
:1001C00008958093E4038091BC00846A8093BC000E
:1001D0008091BC0087FFFCCF8091B90090E0887FC0
:1001E00090708830910521F0409711F08EEF0895BE
:1001F0008FEF08959091E403880F892B8093BB00C3
:100200008091BC008F7D8093BC008091BC00806891
:100210008093BC008091BC0087FFFCCF992331F410
:100220008091B900887F883151F40BC0913011F072
:1002300080E008958091B900887F803411F08EEFBE
:1002400008958FEF08958093BB008091BC00806873
:100250008093BC008091BC0087FFFCCF8091B900E7
:10026000887F883211F08EEF08958FEF089592E322
:1002700006C08091BC0087FF02C08DEF08959150A9
:10028000C0F78CEF0895882321F48091BC0080642E
:1002900003C08091BC008F7B8093BC008091BC0028
:1002A00080688093BC0092E304C08091BC0087FD0D
:1002B00002C09150D0F78091B90090E0887F907093
:1002C0008035910529F08835910529F08EEF089544
:1002D0008091BB0008958091BB0008958091BC007F
:1002E00080698093BC008091BC0084FFFCCF08959E
:1002F0000E94230108950E946E0108951F93182FF4
:1003000080E00E94E100812F0E94FA001F91089571
:100310001F93182F8CE30E947E0180E00E9423012E
:10032000812F0E9423010E946E011F9108950F9357
:100330001F93082F162F8830F0F467FD1CC08093A0
:10034000E5036093E60381E20E948801812F0E9409
:1003500088018FE70E94880182E20E948801802F35
:100360000E94880187E00E9488018CE30E947E0140
:1003700080E40E9423011F910F9108958091E5036D
:100380008F5F87708093E50360E00E949701089576
:100390000F931F93CF93DF93182F8091E60390E084
:1003A0008B37910514F41A3021F40E94BE011A30E3
:1003B00041F1812F805225E0829F80011124075F47
:1003C0001D4F90E00196EC01CC0FDD1FCC0FDD1F1F
:1003D000C80FD91FC75FDD4FF80181918F010E94BF
:1003E00023018091E6038F5F8093E6030C171D07BE
:1003F00099F780E00E9423018091E6038F5F80934C
:10040000E603DF91CF911F910F9108954F925F9274
:100410006F927F928F929F92AF92BF92CF92DF9214
:10042000EF92FF920F931F93DF93CF93CDB7DEB779
:100430002C970FB6F894DEBF0FBECDBF5A016B01EB
:10044000E22E823021F51EC020E08E2D90E0019733
:10045000A80102C0440F551F8A95E2F7CA01AA27D6
:1004600097FDA095BA2F8A219B21AC21BD21009731
:10047000A105B10509F021E0822F805D0E94C8012D
:10048000EA9402C001E010E0EE20F1F653C04115FD
:1004900051056105710551F010E02E010894411CD1
:1004A000511C682E77248824992433C000E004C0AE
:1004B00080E30E94C8010F5F0E15E0F50A30C1F716
:1004C00039C0A114B104C104D104D9F0FA2CC60179
:1004D000B501A40193010E947403C901DA015C0112
:1004E0006D01C201810F911D9C878B87C601B501EB
:1004F000A40193010E945503F61AEB85FC85F08256
:1005000007C0FAE0FE15A0F0F201E10FF11D108224
:100510001F5F1E15B0F20CC0FE01E10FF11D8081BE
:100520008A3010F0895C01C0805D0E94C8011150C2
:10053000112391F72C960FB6F894DEBF0FBECDBFF6
:10054000CF91DF911F910F91FF90EF90DF90CF90AF
:10055000BF90AF909F908F907F906F905F904F90E3
:100560000895CF93DF93EC0103C021960E94C80148
:1005700088818823D1F7DF91CF910895883028F4BE
:100580008093E50360E00E9497010895CF93DF9385
:1005900081E20E94880180E00E9488018FE70E942A
:1005A000880182E20E94880180E00E94880187E041
:1005B0000E9488018CE30E947E0180E40E94230156
:1005C000C0E0D0E080E00E942301219684E0C030AA
:1005D000D807C1F781E20E94880180E00E9488016B
:1005E0008FE70E94880182E20E94880180E00E94D9
:1005F000880187E00E9488018CE30E947E0180E4EC
:100600000E942301DF91CF9108950E94D8008EEAC5
:100610000E94880185ED0E94880180E80E9488017F
:1006200088EA0E9488018FE30E94880183ED0E947E
:10063000880180E00E94880180E40E9488018DE8A2
:100640000E94880184E10E94880180E20E94880162
:1006500080E00E94880181EA0E94880188EC0E9463
:1006600088018AED0E94880182E10E94880181E868
:100670000E9488018FEC0E94880189ED0E94880108
:1006800081EF0E9488018BED0E94880180E40E9426
:10069000880184EA0E94880186EA0E9488018FEA24
:1006A0000E9488010E94C6020895629FD001739F34
:1006B000F001829FE00DF11D649FE00DF11D929FFE
:1006C000F00D839FF00D749FF00D659FF00D99273D
:1006D000729FB00DE11DF91F639FB00DE11DF91F61
:1006E000BD01CF0111240895A1E21A2EAA1BBB1B44
:1006F000FD010DC0AA1FBB1FEE1FFF1FA217B307EE
:10070000E407F50720F0A21BB30BE40BF50B661F03
:10071000771F881F991F1A9469F7609570958095C7
:1007200090959B01AC01BD01CF010895F894FFCFD6
:10073000696E746572696F7200000000000000004D
:100740002F00000007000700147F147F14242A7F65
:100750002A1223130864623649552250000503000B
:1007600000001C2241000041221C0014083E081415
:1007700008083E08080000A06000080808080800F3
:100780006060000020100804023E5149453E0042CE
:100790007F400042615149462141454B31181412B6
:1007A0007F1027454545393C4A49493001710905C3
:1007B000033649494936064949291E0036360000A4
:1007C00000563600000814224100141414141400BA
:1007D000412214080201510906324959513E7C1246
:1007E00011127C7F494949363E414141227F4141B6
:1007F000221C7F494949417F090909013E41494974
:100800007A7F0808087F00417F41002040413F0176
:100810007F081422417F404040407F020C027F7FCE
:100820000408107F3E4141413E7F090909063E41CF
:1008300051215E7F09192946464949493101017F05
:1008400001013F4040403F1F2040201F3F403840B3
:100850003F63140814630708700807615149454352
:10086000007F41410055AA55AA550041417F00042F
:1008700002010204404040404000030500002054B3
:100880005454787F484444383844444420384444DD
:10089000487F3854545418087E09010218A4A4A4AF
:1008A0007C7F0804047800447D40004080847D0003
:1008B0007F1028440000417F40007C041804787CAD
:1008C000080404783844444438FC242424181824A8
:1008D0002418FC7C080404084854545420043F4461
:1008E00040203C4040207C1C2040201C3C403040AC
:1008F0003C44281028441CA0A0A07C4464544C44D0
:1009000000107C82000000FF000000827C100000CC
:0409100006090906C5
:00000001FF
