:100000000C9472000C9493000C9493000C94930045
:100010000C9493000C9493000C9493000C94930014
:100020000C9493000C9493000C9493000C94930004
:100030000C9493000C9493000C9493000C949300F4
:100040000C9493000C9493000C9493000C949300E4
:100050000C9493000C9493000C9493000C949300D4
:100060000C9493000C9493000C9493000C949300C4
:100070000C9493000C9493000C9493000C949300B4
:100080000C9493000C9493000C9493000C949300A4
:100090000C9493000C9493000C9493000C94930094
:1000A0000C9493000C9493000C9493000C94930084
:1000B0000C9493000C9493000C9493000C94930074
:1000C0000C9493000C9493000C9493000C94930064
:1000D0000C9493000C9493000C9493000C94930054
:1000E0000C94930011241FBECFEFD1E2DEBFCDBF31
:1000F00000E00CBF1AE0A0E0B2E0E2E5F7E200E0C9
:100100000BBF02C007900D92A43EB107D9F71AE0C9
:10011000A4EEBAE001C01D92A03FB107E1F70E9432
:100120007A020C94A7130C940000382F80B390E04F
:10013000032E02C0959587950A94E2F780FD0BC0C7
:1001400020B381E090E0032E02C0880F991F0A942B
:10015000E2F7282B20BB662359F021B381E090E021
:1001600002C0880F991F3A95E2F7282B21BB08950A
:1001700021B381E090E002C0880F991F3A95E2F721
:100180008095822381BB0895AF92BF92CF92DF9278
:10019000EF92FF920F931F930E94B20D5B016C01CF
:1001A0002BEA3AEA4AEA50E40E94CA0A7B018C012F
:1001B00020E030E040E85FE30E94D00C882314F494
:1001C00061E054C0C801B70120E030E04FE753E4DC
:1001D0000E94700C18160CF045C0C601B50120E055
:1001E00030E04AE754E40E94C40B5B016C0120E05C
:1001F00030E04AE755E40E94CA0A7B018C0120E006
:1002000030E040E85FE30E94D00C88231CF461E0FA
:1002100070E024C0C801B70120E03FEF4FE757E48A
:100220000E94700C1816B4F4C601B50120E030E04D
:1002300040E251E40E94CA0A0E94F40880E991E079
:1002400005C0FC013197F1F76150704061157105EF
:10025000C1F70EC0C801B7010E94F408CB01019795
:10026000F1F706C0C801B7010E94F4086A95F1F7DA
:100270001F910F91FF90EF90DF90CF90BF90AF90C4
:1002800008958AEA81B98FEF82B9089580E090E0FD
:10029000AAE1BC0182B18A6A82B9613049F0613059
:1002A00028F0623039F0633041F406C0119805C07F
:1002B000139803C0159801C017988A2F8A95F1F7F3
:1002C00080B1049902C040E001C042E0009902C040
:1002D00030E001C034E0029902C020E001C028E013
:1002E00090E056E0969587955A95E1F78170482BF6
:1002F000432B422B20E030E050E0CA01022E02C026
:10030000959587950A94E2F780FD0DC0FB01EE0FED
:10031000FF1FEE0FFF1FE20FF31FE451FC4F808120
:10032000882379F405C02F5F3F4F2430310529F72A
:10033000CB01019660E070E08430910509F4AACF0A
:10034000A8CF0895EF92FF921F93CF93DF93EC0114
:1003500081E00E949C0780E092E00E948F0710E0FD
:1003600060E9E62E61E0F62E0E9446018A3241F4F1
:100370000E94C507DF91CF911F91FF90EF900895E4
:10038000153048F4FE01E10FF11D80831F5FFE016F
:10039000E10FF11D108282E00E949C07CE010E94B5
:1003A0008F078CEA9DE0F7013197F1F70197D9F7B4
:1003B000DBCF1F93182F62E370E00E94B30580EA41
:1003C0009FE020E931E0F9013197F1F70197D9F782
:1003D000812F60E070E00E94B30588EE93E020E991
:1003E00031E0F9013197F1F70197D9F71F9108959D
:1003F000CF92DF92EF92FF920F931F93CF93DF93F1
:100400007C016B0181E1E816F10424F0B0E1EB2EF0
:10041000F12C06C01E141F041CF0A1E0EA2EF12CE2
:10042000F60180819181E701C81BD90B0E94EE0380
:100430008C010E94EB0390E0809FA001819F500DF2
:10044000909F500D1124F4E056954795FA95E1F7E9
:10045000C930D10514F0609705C0FFEFC83FDF0732
:100460000CF460961C161D068CF4CE01880F991FA3
:100470008C0F9D1FC49F9001C59F300DD49F300DE0
:100480001124820F931F60E070E012C0209791F05A
:10049000C49F9001C59F300DD49F300D1124CE0113
:1004A000880F991F8C0F9D1F821B930B61E070E0DA
:1004B0000E949104F601F182E082DF91CF911F91B9
:1004C0000F91FF90EF90DF90CF900895623439F054
:1004D000633454F0633429F0643431F404C0049775
:1004E00003C0089701C00C9797FD4096BA010E947F
:1004F000F80108952F923F924F925F926F927F92F0
:100500008F929F92AF92BF92CF92DF92EF92FF9223
:100510000F931F93DF93CF93CDB7DEB7AD970FB691
:10052000F894DEBF0FBECDBF0E94040884E00E9495
:100530009C078CEF93E00E94A4070E94A3038CEF1A
:1005400097E02091E7033091E8034091E90350914F
:10055000EA036091EB030E9427050E946F058AEA77
:1005600081B98FEF82B982E390E00E94E60388ECC4
:1005700090E00E94E10380E20E94DE0380E20E949C
:10058000130481E090E09A83898380E29EE420E96D
:1005900031E0F9013197F1F70197D9F726E0C22E42
:1005A000D12CCC0EDD1E90E9A92E91E0B92E1E01B2
:1005B0000894211C311C8EE0682E712C6C0E7D1E5F
:1005C00002ED402E03E0502E1AE0812E912C8C0E6D
:1005D0009D1E0E94C5071E82C6010E94A201F6014F
:1005E00001900020E9F73197EC19FD09E230F1059F
:1005F00071F480E38A871B86C401B6010E94B6109D
:10060000C601B4010E94C110E3E0F0E00DC0E43087
:10061000F10554F088E092E00E94B50383E00E9467
:100620009C078EE392E01AC0A5E0B0E0AC0FBD1FBE
:10063000EA0FFB1F808181548430A8F081E592E0AD
:100640000E94B50383E00E949C078FEB92E00E941A
:100650008F0785E00E949C0781ED92E00E948F0742
:1006600080E197E26AC0C6010E94B50380EE92E085
:100670000E94B5038E818B838F818C831D82CE0176
:1006800003960E9498107C0101974097F0F083EE4A
:1006900092E00E94B50384E593E00E94B50383E0F5
:1006A0000E949C0783EB93E00E948F0785E00E94E5
:1006B0009C0785EC93E00E948F0780E197E2F501AB
:1006C0003197F1F70197D9F784CF0885C701602FDB
:1006D000A1010E9466028DB79EB708970FB6F894E5
:1006E0009EBF0FBE8DBFEDB7FEB73196ADB7BEB79B
:1006F00012967C926E92119753824282F582E48226
:10070000112707FD1095178306830E94D0108DB71F
:100710009EB708960FB6F8949EBF0FBE8DBF84E0BB
:100720000E949C07C3010E948F0780ED97E0F501AE
:100730003197F1F70197D9F793CFF5013197F1F799
:100740000197D9F746CF88E08093C10086E0809377
:10075000C20087E68093C4000895982F8091C0005E
:1007600085FFFCCF9093C6000895FC0107C08091DF
:10077000C00085FFFCCF31969093C60090819923ED
:10078000B1F708951092A000E1EAF0E088E08083DC
:100790008081826080831092A5001092A400089549
:1007A000880F991F1092A5001092A4009093A900A1
:1007B0008093A800C99AC99BFECF08958093EA0A46
:1007C00008959093E90A8093E80A08959093EC0ABB
:1007D0008093EB0A08958091EA0A08958091E80ACF
:1007E0009091E90A08958091EB0A9091EC0A08959E
:1007F000682FE091E40AF091E50A83E090E0199512
:100800000895682FE091E40AF091E50A82E090E013
:1008100019950895682FE091E40AF091E50A87E0C0
:1008200090E019950895843051F1853030F481308D
:1008300071F0823009F074C012C0803109F43FC0F9
:10084000803209F455C0883009F06AC020C0E091B8
:10085000E40AF091E50A86E090E060E007C0E091EC
:10086000E40AF091E50A86E090E061E01995E091F4
:10087000E40AF091E50A85E090E060E017C0E091BD
:10088000E40AF091E50A86E090E060E007C0E091BC
:10089000E40AF091E50A86E090E061E01995E091C4
:1008A000E40AF091E50A85E090E061E01995E091B5
:1008B000E40AF091E50A84E090E060E017C0E0917E
:1008C000E40AF091E50A86E090E060E01995E09195
:1008D000E40AF091E50A85E090E060E01995E09186
:1008E000E40AF091E50A84E090E061E0199508954A
:1008F000E091E40AF091E50A86E090E061E0199564
:10090000E091E40AF091E50A85E090E061E0199554
:10091000E091E40AF091E50A84E090E061E0199545
:100920000895CF92DF92EF92FF920F931F93CF9390
:10093000DF936C01672B41F4E091E40AF091E50A42
:1009400080E090E060E007C0E091E40AF091E50A01
:1009500080E090E061E0199585E38A95F1F7609178
:10096000E80A7091E90A80E090E00E94B20D9B01D4
:10097000AC0160EC71EE84E69CE40E94C40B7B0148
:100980008C016091EA0A70E0882777FD8095982FA6
:100990000E94000D9B01AC01C801B7010E94C40B6D
:1009A0007B018C016091EB0A7091EC0A80E090E091
:1009B0000E94B20D9B01AC01C801B7010E94C40B9B
:1009C0000E94F408F62EE72EC0E0D0E01AC0E091B5
:1009D000E40AF091E50A81E090E061E01995870171
:1009E000812F9E2D0E94D003E091E40AF091E50A48
:1009F00081E090E060E01995812F9E2D0E94D00348
:100A00002196CC15DD0518F3DF91CF911F910F9141
:100A1000FF90EF90DF90CF9008952091EA0A30E0A8
:100A20004091E80A5091E90AF901E49F9001E59F9D
:100A3000300DF49F300D1124AC01249FC001259F7F
:100A4000900D349F900D11240E9491040895DF931E
:100A5000CF9300D00F920F92CDB7DEB7FC01298360
:100A60003A834B835C836D83242F309711F480E0AD
:100A70002EC080819181A281B3818093E40A9093FA
:100A8000E50AA093E60AB093E70A4B83A8EEBAE022
:100A9000FE01319685E001900D928150E1F7822FA1
:100AA0000E94130481E00E94010481E00E94F80387
:100AB0001092A00088E08093A1008091A100826044
:100AC0008093A1001092A5001092A40081E00F90E5
:100AD0000F900F900F900F90CF91DF91089584B1F8
:100AE000806E84B9A0E8B0E08C91886A8C93E1E8CC
:100AF000F0E08081806180838081886080838C9138
:100B000082608C938081826080834FE35CE95093A4
:100B100087004093860028EE33E0309389002093CD
:100B2000880030938B0020938A0030938D002093AF
:100B30008C006B9AA0E9B0E08C9180688C93E1E91D
:100B4000F0E08081886180838C9182608C938081C9
:100B50008260808350939700409396003093990071
:100B6000209398000895DF92EF92FF920F931F93C6
:100B7000D82E882777FD8095982F0E94000D20E0C1
:100B800030E044E353E40E94C40B20E030E04AEF3D
:100B900054E40E94CA0A20E030E04AEF53E40E9485
:100BA0009D0A0E945E0D882777FD8095982F0E94F0
:100BB000000D7B018C0120E030E44CE155E40E9403
:100BC000700C18165CF40F2EF0E0EF2EF0E4FF2E00
:100BD000FCE10F2FF5E41F2FF02D14C0C801B70161
:100BE00020E030E04AEF53E40E94D00C882354F414
:100BF0000F2EF0E0EF2EF0E0FF2EFAEF0F2FF3E4D0
:100C00001F2FF02D84E08D15CCF11D1484F482E0AB
:100C1000D816D1F08D1524F081E0D816D9F507C08B
:100C200083E0D816F1F084E0D816A1F527C0C801FA
:100C3000B701A80197010E949D0A0E94F4087093D1
:100C400089006093880026C0C801B701A8019701F8
:100C50000E949D0A0E94F40870938B0060938A00A2
:100C600019C0C801B701A80197010E949D0A0E94FE
:100C7000F40870938D0060938C000CC0C801B7011C
:100C8000A80197010E949D0A0E94F40870939900A0
:100C9000609398001F910F91FF90EF90DF9008955F
:100CA000E1E8F0E08081887F808308950E949F08BA
:100CB00008950E94EA0808951F93182F80E00E946B
:100CC0005D08812F0E9476081F9108951F93182FA9
:100CD0008CE30E945C0680E00E949F08812F0E94A6
:100CE0009F080E94EA081F9108950F931F93082FF1
:100CF000162F8830F0F467FD1CC08093EE0A6093D5
:100D0000EF0A81E20E946606812F0E9466068FE745
:100D10000E94660682E20E946606802F0E94660696
:100D200087E00E9466068CE30E945C0680E40E94D5
:100D30009F081F910F9108958091EE0A8F5F877031
:100D40008093EE0A60E00E94750608950F931F934A
:100D5000CF93DF93182F8091EF0A90E08B379105A6
:100D600014F41A3021F40E949C061A3041F1812FAC
:100D7000805225E0829F800111240050184F90E09E
:100D80000196EC01CC0FDD1FCC0FDD1FC80FD91F62
:100D9000C050D84FF80181918F010E949F08809127
:100DA000EF0A8F5F8093EF0A0C171D0799F780E019
:100DB0000E949F088091EF0A8F5F8093EF0ADF9176
:100DC000CF911F910F9108954F925F926F927F92F2
:100DD0008F929F92AF92BF92CF92DF92EF92FF924B
:100DE0000F931F93DF93CF93CDB7DEB72C970FB63A
:100DF000F894DEBF0FBECDBF5A016B01E22E8230E8
:100E000021F51EC020E08E2D90E00197A80102C0C0
:100E1000440F551F8A95E2F7CA01AA2797FDA095AE
:100E2000BA2F8A219B21AC21BD210097A105B105D4
:100E300009F021E0822F805D0E94A606EA9402C09C
:100E400001E010E0EE20F1F653C0411551056105B7
:100E5000710551F010E02E010894411C511C682EC0
:100E600077248824992433C000E004C080E30E94E2
:100E7000A6060F5F0E15E0F50A30C1F739C0A114C0
:100E8000B104C104D104D9F0FA2CC601B501A40102
:100E900093010E943F10C901DA015C016D01C2019A
:100EA000810F911D9C878B87C601B501A401930119
:100EB0000E942010F61AEB85FC85F08207C0FAE04C
:100EC000FE15A0F0F201E10FF11D10821F5F1E154B
:100ED000B0F20CC0FE01E10FF11D80818A3010F0EC
:100EE000895C01C0805D0E94A6061150112391F714
:100EF0002C960FB6F894DEBF0FBECDBFCF91DF9119
:100F00001F910F91FF90EF90DF90CF90BF90AF9027
:100F10009F908F907F906F905F904F900895CF93A8
:100F2000DF93EC0103C021960E94A60688818823E6
:100F3000D1F7DF91CF910895883028F48093EE0A9D
:100F400060E00E94750608950F931F93CF93DF937F
:100F50008C0180E060E00E9475068CE30E945C06D4
:100F600080E40E949F08C0E0D0E0F801EC0FFD1F74
:100F700080810E949F08219684E0C030D807A9F79D
:100F8000DF91CF911F910F910895CF93DF9381E26D
:100F90000E94660680E00E9466068FE70E94660651
:100FA00082E20E94660680E00E94660687E00E9458
:100FB00066068CE30E945C0680E40E949F08C0E005
:100FC000D0E080E00E949F08219684E0C030D807DE
:100FD000C1F781E20E94660680E00E9466068FE704
:100FE0000E94660682E20E94660680E00E94660613
:100FF00087E00E9466068CE30E945C0680E40E9403
:101000009F08DF91CF9108950E9454088EEA0E94B4
:10101000660685ED0E94660680E80E94660688EAFC
:101020000E9466068FE30E94660683ED0E946606B4
:1010300080E00E94660680E40E9466068DE80E94B9
:10104000660684E10E94660680E20E94660680E0F1
:101050000E94660681EA0E94660688EC0E94660687
:101060008AED0E94660682E10E94660681E80E947F
:1010700066068FEC0E94660689ED0E94660681EF87
:101080000E9466068BED0E94660680E40E9466065A
:1010900084EA0E94660686EA0E9466068FEA0E943B
:1010A00066060E94C5070895E9EBF0E080818C7F19
:1010B000808383E18093B80008958093ED0A809146
:1010C000BC00846A8093BC008091BC0087FFFCCF89
:1010D0008091B90090E0887F90708830910521F070
:1010E000409711F08EEF08958FEF08959091ED0ADB
:1010F000880F892B8093BB008091BC008F7D8093EB
:10110000BC008091BC0080688093BC008091BC00D2
:1011100087FFFCCF992331F48091B900887F883113
:1011200051F40BC0913011F080E008958091B90026
:10113000887F803411F08EEF08958FEF08958093AB
:10114000BB008091BC0080688093BC008091BC0093
:1011500087FFFCCF8091B900887F883211F08EEF35
:1011600008958FEF089592E306C08091BC0087FF39
:1011700002C08DEF08959150C0F78CEF0895882339
:1011800021F48091BC00806403C08091BC008F7BFF
:101190008093BC008091BC0080688093BC0092E387
:1011A00004C08091BC0087FD02C09150D0F78091AF
:1011B000B90090E0887F90708035910529F08835DE
:1011C000910529F08EEF08958091BB0008958091DC
:1011D000BB0008958091BC0080698093BC00809121
:1011E000BC0084FFFCCF0895EF92FF920F931F93F2
:1011F0007B018C0120E030E040E05FE40E94A00C25
:1012000088238CF0C801B70120E030E040E05FE4C3
:101210000E946C0A0E945E0D9B01AC012050304080
:101220004040504806C0C801B7010E945E0D9B01B6
:10123000AC01B901CA011F910F91FF90EF90089581
:10124000A0E0B0E0E6E2F9E00C946110DC012B01D3
:10125000FA019C91923008F439C1EB018881823007
:1012600008F433C1943069F4843009F02FC1119629
:101270009C9111978981981709F428C1ABEDB9E0C9
:1012800025C1843009F421C18230A9F4923009F0DB
:101290001DC19A01AD0188E0EA010990AE01E901A2
:1012A00009929E018150C1F7E201898111969C91BA
:1012B0008923818308C1923009F407C112962D90C9
:1012C0003C901397EB018A819B811496AD90BD9061
:1012D000CD90DC901797EC80FD800E811F819101ED
:1012E000281B390BB90137FF04C066277727621B1B
:1012F000730B603271050CF061C0121613066CF5A9
:1013000037014801062E04C0969487947794679419
:101310000A94D2F721E030E040E050E004C0220F10
:10132000331F441F551F6A95D2F72150304040406B
:1013300050402E213F2140235123211531054105E5
:10134000510521F021E030E040E050E079018A01D0
:10135000E628F728082919293CC0232BD1F1260EAD
:10136000371E35014601062E04C096948794779463
:1013700067940A94D2F721E030E040E050E004C0E6
:10138000220F331F441F551F6A95D2F7215030405A
:10139000404050402A213B214C215D21211531053F
:1013A0004105510521F021E030E040E050E05901D5
:1013B0006A01A628B728C828D9280BC0821593052A
:1013C0002CF01C01AA24BB24650103C0EE24FF24D9
:1013D000870111969C91D20111968C91981709F46E
:1013E00045C0992339F0A80197012A193B094C09F6
:1013F0005D0906C0A60195012E193F09400B510B4E
:1014000057FD08C0118233822282248335834683AC
:1014100057831DC081E081833382228288279927E8
:10142000DC01821B930BA40BB50B84839583A683ED
:10143000B7830DC0220F331F441F551F24833583EC
:10144000468357838281938101979383828324818A
:10145000358146815781DA01C9010197A109B10996
:101460008F5F9F4FAF4FBF4328F30BC091833382F1
:101470002282EA0CFB1C0C1D1D1DE482F5820683F2
:10148000178383E08083248135814681578157FF0C
:101490001AC0C901AA2797FDA095BA2F8170907034
:1014A000A070B0705695479537952795822B932B52
:1014B000A42BB52B84839583A683B78382819381E4
:1014C000019693838283DF0101C0D201CD01CDB7A4
:1014D000DEB7E2E10C947D10A0E2B0E0E2E7FAE0D2
:1014E0000C946D1069837A838B839C832D833E8358
:1014F0004F835887E9E0EE2EF12CEC0EFD1ECE0155
:101500000196B7010E944F0F8E010F5E1F4FCE0153
:101510000596B8010E944F0F8A8991E089278A8B2E
:10152000C701B801AE01475E5F4F0E9420090E94CB
:101530007A0EA096E6E00C948910A0E2B0E0E3EA0F
:10154000FAE00C946D1069837A838B839C832D83DE
:101550003E834F835887F9E0EF2EF12CEC0EFD1EF1
:10156000CE010196B7010E944F0F8E010F5E1F4FF3
:10157000CE010596B8010E944F0FC701B801AE0118
:10158000475E5F4F0E9420090E947A0EA096E6E017
:101590000C948910A0E2B0E0E0EDFAE00C94611048
:1015A00069837A838B839C832D833E834F83588703
:1015B000CE010196BE01675F7F4F0E944F0FCE01A3
:1015C0000596BE016F5E7F4F0E944F0F9985923046
:1015D00088F089898230C8F0943019F4823051F44F
:1015E00004C0843029F4923081F48BED99E0C6C0B8
:1015F000923049F420E09A858A89981321E02A875D
:10160000CE010996BBC0823049F420E09A858A89D0
:10161000981321E02A8BCE014196B0C02D843E84E0
:101620004F8458886D887E888F88988CEE24FF249C
:101630008701AA24BB24650140E050E060E070E02F
:10164000E0E0F0E0C10181709070892BE9F0E60CD8
:10165000F71C081D191D9A01AB012A0D3B1D4C1DDD
:101660005D1D80E090E0A0E0B0E0E614F70408051E
:10167000190520F481E090E0A0E0B0E0BA01A901F2
:10168000480F591F6A1F7B1FAA0CBB1CCC1CDD1CFA
:1016900097FE08C081E090E0A0E0B0E0A82AB92A57
:1016A000CA2ADB2A3196E032F10549F0660C771C34
:1016B000881C991C5694479437942794C3CFFA8575
:1016C000EA892B893C898B859C85280F391F2E5FE1
:1016D0003F4F17C0CA0181709070892B61F0169539
:1016E0000795F794E79480E090E0A0E0B0E8E82A5E
:1016F000F92A0A2B1B2B76956795579547952F5FEF
:101700003F4F77FDE7CF0CC0440F551F661F771F73
:1017100017FD4160EE0CFF1C001F111F21503040CF
:10172000403090E0590790E0690790E4790760F352
:101730002B8F3C8FDB01CA018F779070A070B07047
:1017400080349105A105B10561F447FD0AC0E1149B
:10175000F1040105110529F0405C5F4F6F4F7F4F89
:1017600040781A8EFE1711F081E08A8F4D8F5E8FC0
:101770006F8F78A383E0898FCE0149960E947A0EFD
:10178000A096E2E10C947D10A8E1B0E0EAECFBE069
:101790000C94691069837A838B839C832D833E83A9
:1017A0004F835887B9E0EB2EF12CEC0EFD1ECE01D5
:1017B0000196B7010E944F0F8E010F5E1F4FCE01A1
:1017C0000596B8010E944F0F2985223008F47EC08B
:1017D0003989323010F4B8017CC08A859A8989270A
:1017E0008A87243011F0223031F4231709F06EC0BB
:1017F0006BED79E06EC0343039F41D861E861F868D
:10180000188A1C861B8604C0323021F484E0898744
:10181000B7015FC02B853C858B899C89281B390BC0
:101820003C872B87ED84FE840F851889AD88BE88A0
:10183000CF88D88CEA14FB040C051D0540F4EE0C8F
:10184000FF1C001F111F215030403C872B8720E0D8
:1018500030E040E050E080E090E0A0E0B0E460E004
:1018600070E0EA14FB040C051D0540F0282B392B11
:101870004A2B5B2BEA18FB080C091D09B695A795A6
:1018800097958795EE0CFF1C001F111F6F5F7F4F10
:101890006F31710531F7DA01C9018F779070A0704F
:1018A000B07080349105A105B10561F427FD0AC02F
:1018B000E114F1040105110529F0205C3F4F4F4F61
:1018C0005F4F20782D873E874F87588BBE01675F1B
:1018D0007F4FCB010E947A0E6896EAE00C94851047
:1018E000A8E1B0E0E6E7FCE00C946D1069837A8330
:1018F0008B839C832D833E834F83588789E0E82E1A
:10190000F12CEC0EFD1ECE010196B7010E944F0F87
:101910008E010F5E1F4FCE010596B8010E944F0F3A
:101920008985823040F08989823028F0C701B8016A
:101930000E94C70F01C08FEF6896E6E00C948910F3
:10194000A8E1B0E0E6EAFCE00C946D1069837A83CC
:101950008B839C832D833E834F83588789E0E82EB9
:10196000F12CEC0EFD1ECE010196B7010E944F0F27
:101970008E010F5E1F4FCE010596B8010E944F0FDA
:101980008985823040F08989823028F0C701B8010A
:101990000E94C70F01C08FEF6896E6E00C94891093
:1019A000A8E1B0E0E6EDFCE00C946D1069837A8369
:1019B0008B839C832D833E834F83588789E0E82E59
:1019C000F12CEC0EFD1ECE010196B7010E944F0FC7
:1019D0008E010F5E1F4FCE010596B8010E944F0F7A
:1019E0008985823040F08989823028F0C701B801AA
:1019F0000E94C70F01C081E06896E6E00C94891050
:101A0000A8E0B0E0E6E0FDE00C946A109B01AC01B8
:101A100083E08983DA01C9018827B7FD8395992777
:101A2000AA27BB27B82E211531054105510519F408
:101A300082E089833AC08823A9F0203080E038070B
:101A400080E0480780E8580729F460E070E080E013
:101A50009FEC30C0EE24FF248701E21AF30A040B46
:101A6000150B02C079018A018EE1C82ED12CDC82CF
:101A7000CB82ED82FE820F831887C801B7010E94D6
:101A80002B0E01971816190684F4082E04C0EE0CCC
:101A9000FF1C001F111F0A94D2F7ED82FE820F83F4
:101AA0001887C81AD90ADC82CB82BA82CE01019685
:101AB0000E947A0E2896E9E00C948610ACE0B0E023
:101AC000E4E6FDE00C94711069837A838B839C8338
:101AD000CE010196BE016B5F7F4F0E944F0F8D813B
:101AE000823061F1823050F1843021F48E8188237C
:101AF00051F12EC02F81388537FD20C06E812F31E6
:101B000031051CF06623F9F023C08EE190E0821BC2
:101B1000930B29853A854B855C8504C0569547957E
:101B2000379527958A95D2F76623B1F05095409561
:101B3000309521953F4F4F4F5F4F0EC020E030E072
:101B400040E050E009C02FEF3FEF4FEF5FE704C0E8
:101B500020E030E040E050E8B901CA012C96E2E014
:101B60000C948D10A8E0B0E0E8EBFDE00C94691057
:101B70007B018C01611571058105910519F482E0E5
:101B8000898360C083E089838EE1C82ED12CDC82FA
:101B9000CB82ED82FE820F831887C801B7010E94B5
:101BA0002B0EFC013197F7FF3BC0222733272E1B5A
:101BB0003F0B57016801022E04C0D694C794B79416
:101BC000A7940A94D2F740E050E060E070E081E032
:101BD00090E0A0E0B0E004C0880F991FAA1FBB1FCF
:101BE0002A95D2F70197A109B1098E219F21A0233F
:101BF000B1230097A105B10521F041E050E060E07C
:101C000070E04A295B296C297D294D835E836F83AF
:101C100078878EE190E08E1B9F0B9C838B8312C094
:101C2000309781F00E2E04C0EE0CFF1C001F111F18
:101C30000A94D2F7ED82FE820F831887CE1ADF0A4C
:101C4000DC82CB821A82CE0101960E947A0E2896FF
:101C5000EAE00C948510EF92FF920F931F937B01A3
:101C60008C0180E0E81680E0F80681E0080780E05B
:101C7000180788F48FEFE816F1040105110531F01B
:101C800028F088E090E0A0E0B0E017C080E090E0AD
:101C9000A0E0B0E012C080E0E81680E0F80680E046
:101CA000080781E0180728F088E190E0A0E0B0E0A4
:101CB00004C080E190E0A0E0B0E020E230E040E04D
:101CC00050E0281B390B4A0B5B0B04C01695079597
:101CD000F794E7948A95D2F7F701ED51F64F80819A
:101CE000281B310941095109C9011F910F91FF902A
:101CF000EF900895DF92EF92FF920F931F93FC01F4
:101D0000E480F58006811781D1808081823048F49B
:101D100080E090E0A0E1B0E0E82AF92A0A2B1B2B32
:101D2000A5C0843009F49FC0823021F4EE24FF2442
:101D3000870105C0E114F1040105110519F4E0E083
:101D4000F0E096C0628173819FEF623879070CF0F2
:101D50005BC022E83FEF261B370B2A3131052CF000
:101D600020E030E040E050E02AC0B801A701022E98
:101D700004C076956795579547950A94D2F781E008
:101D800090E0A0E0B0E004C0880F991FAA1FBB1F1D
:101D90002A95D2F70197A109B1098E219F21A0238D
:101DA000B1230097A105B10521F081E090E0A0E00A
:101DB000B0E09A01AB01282B392B4A2B5B2BDA01BF
:101DC000C9018F779070A070B07080349105A10523
:101DD000B10539F427FF09C0205C3F4F4F4F5F4FDB
:101DE00004C0215C3F4F4F4F5F4FE0E0F0E02030F8
:101DF000A0E03A07A0E04A07A0E45A0710F0E1E0AB
:101E0000F0E079018A0127C06038710564F5FB01B3
:101E1000E158FF4FD801C7018F779070A070B07064
:101E200080349105A105B10539F4E7FE0DC080E4C9
:101E300090E0A0E0B0E004C08FE390E0A0E0B0E06C
:101E4000E80EF91E0A1F1B1F17FF05C01695079500
:101E5000F794E794319687E016950795F794E79401
:101E60008A95D1F705C0EE24FF248701EFEFF0E05B
:101E70006E2F679566276795902F9F77D794DD24FF
:101E8000D7948E2F8695492F462B582F5D29B70161
:101E9000CA011F910F91FF90EF90DF900895FC0110
:101EA000DB01408151812281622F6F7770E0221F18
:101EB0002227221F9381892F880F822B282F30E021
:101EC000991F9927991F11969C93119721153105F8
:101ED000A9F5411551056105710511F482E037C07E
:101EE00082E89FEF13969C938E9312979A01AB0111
:101EF00067E0220F331F441F551F6A95D1F783E017
:101F00008C930DC0220F331F441F551F12968D91C5
:101F10009C911397019713969C938E931297203060
:101F200080E0380780E0480780E4580758F31496AB
:101F30002D933D934D935C93179708952F3F310553
:101F400079F4411551056105710519F484E08C930C
:101F5000089564FF03C081E08C9312C01C9210C0EE
:101F60002F57304013963C932E93129783E08C9317
:101F700087E0440F551F661F771F8A95D1F770645D
:101F800014964D935D936D937C93179708951F93CB
:101F9000DC01FB019C91923008F447C080818230C3
:101FA00008F443C0943051F411961C91843099F593
:101FB0008181682F70E0611B71093FC0843021F07E
:101FC000923031F48230B9F18181882389F12DC0BA
:101FD00011961C9111978230F1F081811817D9F474
:101FE00012962D913C9113978281938182179307CA
:101FF00094F028173907BCF014968D919D910D909F
:10200000BC91A02D2481358146815781281739073D
:102010004A075B0718F4112341F00AC0821793079F
:10202000A407B50740F4112319F061E070E005C082
:102030006FEF7FEF02C060E070E0CB011F91089569
:10204000629FD001739FF001829FE00DF11D649F9C
:10205000E00DF11D929FF00D839FF00D749FF00D28
:10206000659FF00D9927729FB00DE11DF91F639FC9
:10207000B00DE11DF91FBD01CF0111240895A1E2AA
:102080001A2EAA1BBB1BFD010DC0AA1FBB1FEE1FF2
:10209000FF1FA217B307E407F50720F0A21BB30B3D
:1020A000E40BF50B661F771F881F991F1A9469F7B9
:1020B00060957095809590959B01AC01BD01CF0115
:1020C00008952F923F924F925F926F927F928F92DC
:1020D0009F92AF92BF92CF92DF92EF92FF920F93B7
:1020E0001F93CF93DF93CDB7DEB7CA1BDB0B0FB6C1
:1020F000F894DEBF0FBECDBF19942A88398848886E
:102100005F846E847D848C849B84AA84B984C88413
:10211000DF80EE80FD800C811B81AA81B981CE0F0A
:10212000D11D0FB6F894DEBF0FBECDBFED010895EF
:10213000FC0188279927E89421912032E9F329307E
:1021400010F02E30C8F32B3241F02D3239F4689460
:1021500004C00E94C810820F911D219120532A3083
:10216000C0F31EF4909581959F4F0895FB01DC010B
:102170000D900020E9F7119701900D920020E1F7F2
:102180000895FB01DC0101900D920020E1F7089514
:102190007AE0979F902D879F802D910D11240895AF
:1021A0000F931F93DF93CF93CDB7DEB72E970FB664
:1021B000F894DEBF0FBECDBF0E891F8986E08C83E9
:1021C0001A8309838FEF9FE79E838D839E01265E8E
:1021D0003F4FCE010196688D798DA9010E940111B2
:1021E0002F813885020F131FF80110822E960FB62B
:1021F000F894DEBF0FBECDBFCF91DF911F910F913D
:1022000008952F923F924F925F926F927F928F929A
:102210009F92AF92BF92CF92DF92EF92FF920F9375
:102220001F93DF93CF93CDB7DEB72B970FB6F894FC
:10223000DEBF0FBECDBF3C012B015A01FC0117824E
:102240001682838181FD03C06FEF7FEFC6C19AE0E4
:10225000892E1E010894211C311CF3012381F201F7
:1022600023FD859123FF81912F01882309F4B2C1B9
:10227000853239F423FD859123FF81912F01853229
:1022800029F490E0B3010E941D13E7CF982FFF249B
:10229000EE249924FFE1FF15D0F09B3269F09C32C7
:1022A00028F4903259F0933291F40EC09D3249F0E7
:1022B000903369F441E024C052E0F52A84E0F82A22
:1022C00028C098E0F92A25C0E0E1FE2A22C0F7FCE8
:1022D00029C0892F80538A3070F4F6FE05C0989C7F
:1022E000902C1124980E15C0E89CE02C1124E80EC7
:1022F000F0E2FF2A0EC09E3229F4F6FC6BC140E4E6
:10230000F42A07C09C3619F450E8F52A02C0983622
:1023100049F4F20123FD959123FF91912F01992317
:1023200009F0B8CF892F8554833018F0805283305C
:1023300038F444E050E0A40EB51E5FE359830FC0AB
:10234000933631F0933779F0933509F056C020C0B9
:10235000F5018081898342E050E0A40EB51E610141
:1023600001E010E012C0F501C080D180F6FC03C08E
:102370006FEF7FEF02C0692D70E042E050E0A40EE5
:10238000B51EC6010E9412138C015FE7F52214C02E
:10239000F501C080D180F6FC03C06FEF7FEF02C073
:1023A000692D70E042E050E0A40EB51EC6010E9407
:1023B00007138C0150E8F52AF3FE07C01AC080E22B
:1023C00090E0B3010E941D13EA948E2D90E008174F
:1023D0001907A8F30EC0F601F7FC8591F7FE81916D
:1023E0006F0190E0B3010E941D13E110EA940150C7
:1023F00010400115110579F7EAC0943611F09936AD
:1024000069F5F7FE08C0F5012081318142815381D1
:1024100084E090E00AC0F501808191819C0144270D
:1024200037FD4095542F82E090E0A80EB91E9FE63C
:10243000F92257FF09C050954095309521953F4F9F
:102440004F4F5F4FE0E8FE2ACA01B901A1012AE01F
:1024500030E00E944913D82ED21840C0953729F495
:102460001F2D1F7E2AE030E01DC01F2D197F9F36D3
:1024700061F0903720F4983509F0ACC00FC0903768
:1024800039F0983709F0A6C004C028E030E00AC04F
:10249000106114FD146020E130E004C014FD1660EA
:1024A00020E132E017FF08C0F5016081718182816F
:1024B000938144E050E008C0F50180819181BC0126
:1024C00080E090E042E050E0A40EB51EA1010E9421
:1024D0004913D82ED2188FE7F82EF122F6FE0BC042
:1024E0005EEFF522D91438F4F4FE07C0F2FC05C003
:1024F0008FEEF82202C01D2D01C0192DF4FE0DC073
:10250000FE01ED0DF11D8081803319F499EEF92261
:1025100008C01F5FF2FE05C003C08F2D867809F04A
:102520001F5F0F2DF3FC14C0F0FE0FC01E1510F03E
:102530009D2C0BC09D2C9E0C911A1E2D06C080E276
:1025400090E0B3010E941D131F5F1E15C0F304C06D
:102550001E1510F4E11A01C0EE2404FF0FC080E341
:1025600090E0B3010E941D1302FF1DC001FD03C0D6
:1025700088E790E00EC088E590E00BC0802F867859
:1025800091F001FF02C08BE201C080E2F7FC8DE216
:1025900090E0B3010E941D1306C080E390E0B301F8
:1025A0000E941D139A94D914C0F3DA94F101ED0D31
:1025B000F11D808190E0B3010E941D13DD20A9F779
:1025C00006C080E290E0B3010E941D13EA94EE2061
:1025D000C1F743CEF30166817781CB012B960FB60D
:1025E000F894DEBF0FBECDBFCF91DF911F910F9149
:1025F000FF90EF90DF90CF90BF90AF909F908F9023
:102600007F906F905F904F903F902F900895FC01C6
:102610000590615070400110D8F7809590958E0F0D
:102620009F1F0895FC016150704001900110D8F780
:10263000809590958E0F9F1F08950F931F93CF93B2
:10264000DF938C01EB018B8181FF1BC082FF0DC0EA
:102650002E813F818C819D812817390764F4E881A0
:10266000F9810193F983E88306C0E885F985802F15
:102670001995892B31F48E819F8101969F838E83DA
:1026800002C00FEF1FEFC801DF91CF911F910F9193
:102690000895FA01AA27283051F1203181F1E894F8
:1026A0006F936E7F6E5F7F4F8F4F9F4FAF4FB1E045
:1026B0003ED0B4E03CD0670F781F891F9A1FA11D40
:1026C000680F791F8A1F911DA11D6A0F711D811D41
:1026D000911DA11D20D009F468943F912AE0269F06
:1026E00011243019305D3193DEF6CF010895462F65
:1026F0004770405D4193B3E00FD0C9F7F6CF462F46
:102700004F70405D4A3318F0495D31FD40524193AE
:1027100002D0A9F7EACFB4E0A6959795879577956B
:102720006795BA95C9F700976105710508959B01F2
:10273000AC010A2E06945795479537952795BA957B
:10274000C9F7620F731F841F951FA01D0895F89489
:02275000FFCFB9
:10275200496E7075743A2000496E76616C69642026
:10276200696E7075742E20496E707574206C6F6E70
:10277200676572207468616E207468726565206393
:102782006861726163746572732E200D0A004D6177
:102792007820696E70757420332063686172732EBD
:1027A20000496E76616C696420696E7075742E20C2
:1027B20020456E74657220612063617264206E75BB
:1027C2006D62657220666F6C6C6F776564206279EA
:1027D200207468652072656164657220796F752066
:1027E200776F756C64206C696B6520697420746FF7
:1027F20020626520726561642062792E20452E6711
:102802002E203141206F72203031412E0D0A0049B5
:102812006E636F727265637420466F726D61742E9F
:1028220000652E672E20303141206F722031410029
:102832000D0A00496E76616C696420696E70757468
:102842002E2045697468657220796F757220696EF1
:102852007075742063617264206E756D626572209A
:102862006973206F7574206F6620626F756E647372
:102872002C206F7220796F7527766520656E7465DE
:1028820072656420612076616C7565207769746871
:10289200207468652077726F6E6720666F726D6153
:1028A200742E2000456E746572206120636172642B
:1028B200206E756D62657220666F6C6C6F776564F1
:1028C200206279207468652072656164657220797E
:1028D2006F7520776F756C64206C696B6520697405
:1028E20020746F20626520726561642062792E20F7
:1028F200452E672E203141206F72203031412E202B
:102902000D0A00436172642076616C7565206F75F3
:1029120074206F6600626F756E647320312D3136DC
:102922002E004361726420256420746F20726561F9
:1029320064657220256300C80001C800313233414A
:1029420034353642373839432A30234400000000F8
:102952000000000000000000000000000000000075
:102962000000000000000000000000000000000065
:102972000000000000000000000000000000000055
:102982000000000000000000000000000000000045
:102992000000000000000000000000000000000035
:1029A200000000000000000000000000000000E045
:1029B200F0000000F8800000F8E000C0C000200035
:1029C2000000000000000000000000000000000005
:1029D20000000000000000000000000000000000F5
:1029E20000000000000000000000000000000000E5
:1029F20000000000000000000000000000000000D5
:102A020000000000000000000000000000000000C4
:102A120000000000000000000000000000000000B4
:102A2200000000000020D81C0080A8A90200E07F5E
:102A3200730000F4E5E7000019EFF3E1E000F03085
:102A42000C0C0380C0A06000000000000000000029
:102A52000000000000000000000000000000000074
:102A62000000000000000000000000000000000064
:102A72000000000000000000000000000000000054
:102A82000000000000000000000000000000000044
:102A92000000000000000000000000000000000034
:102AA200000000040483404836040900605AFD3DDA
:102AB2000380787FF7F30000FFFFA9FF20030000E7
:102AC2005848B700000040A0A0000000000000002D
:102AD2000000FEBE000080C0A0E06060E060C000B8
:102AE2000000F6FDE06020208060C00000E0E0E031
:102AF200606060E0E0C00000C0A060606060200034
:102B0200008040A02040406060800000C060E06023
:102B12004060E060C0000000000000000000000013
:102B2200000000141C0502C3A0A82A7E2C0703A0E3
:102B3200F867FDFF1901E07CDFFEFB1B40003EFC55
:102B420089C98400002404AB2600000000000000B4
:102B520000E0DFF300003F7FD9E0C080A0BF7F1B11
:102B62000000BDCF000000000073BD0000FFCFFFDA
:102B720000000084FFD60000C3C7C6C6BCDC7800D4
:102B8200043F7BE0C0C0C0E07F3F060018EFBF00FB
:102B9200000000FEFD000000000000000000000038
:102BA20000000000000707050581A0C0F8C6671FE6
:102BB200170580E078AEEFFFED0F1F018160808086
:102BC200070D1600100000000000000000000003C6
:102BD200020300000000000000000000000080402E
:102BE200E0E0E0E0A0E0C000000000000000000023
:102BF200000000000000000000000000000000C013
:102C02008000000000000000000000000000000042
:102C120000000000000000000070A00000000000A2
:102C22000000000000000000000000000100000899
:102C32000C0E1B1F0F03020304010000000102021D
:102C42000100000000000000000000000000000081
:102C5200000000000000000000000000F8BFFF03B9
:102C620000000000000000E0D0D81C0C0C081CFC86
:102C7200F8E000F89CFC0C0E060A7CF800000CFF41
:102C82006E0C0C0C0000F89CFC0C0E0E0090B81C94
:102C92000E020A0CDCC8E00000CE73000078DC24CF
:102CA200CE4E800000000000000000000000000086
:102CB2000000000000000000000000000000000012
:102CC2000000000000000000000000000000000002
:102CD2000000000000000000000000000001070FDB
:102CE2001C1C181018180C00070D1E1818101C0FA9
:102CF2000703001F171F000000001F1F0000000F26
:102D02000F1C181010001F1F1D00000000070A1ED4
:102D12001018081C0B030300001D0E0000181818E1
:102D2200181D0F0700000000000000000000000056
:102D32000000000000000000000000000000000091
:102D42000000000000000000000000009500C40028
:102D5200000000000000002F000000070007001420
:102D62007F147F14242A7F2A1223130864623649AF
:102D72005522500005030000001C224100004122A0
:102D82001C0014083E081408083E08080000A06051
:102D9200000808080808006060000020100804020B
:102DA2003E5149453E00427F400042615149462121
:102DB20041454B311814127F1027454545393C4A8D
:102DC20049493001710905033649494936064949DD
:102DD200291E003636000000563600000814224133
:102DE200001414141414004122140802015109069B
:102DF200324959513E7C1211127C7F494949363E73
:102E0200414141227F4141221C7F494949417F0979
:102E12000909013E4149497A7F0808087F00417F3C
:102E220041002040413F017F081422417F40404041
:102E3200407F020C027F7F0408107F3E4141413EE9
:102E42007F090909063E4151215E7F09192946463B
:102E52004949493101017F01013F4040403F1F2064
:102E620040201F3F4038403F631408146307087036
:102E720008076151494543007F41410055AA55AABF
:102E8200550041417F00040201020440404040409D
:102E9200000305000020545454787F4844443838D5
:102EA20044444420384444487F3854545418087EDB
:102EB20009010218A4A4A47C7F0804047800447DBC
:102EC20040004080847D007F1028440000417F4004
:102ED200007C041804787C0804047838444444389C
:102EE200FC2424241818242418FC7C080404084810
:102EF20054545420043F4440203C4040207C1C2039
:102F020040201C3C4030403C44281028441CA0A0D7
:102F1200A07C4464544C4400107C82000000FF00FA
:102F22000000827C10000006090906000000000073
:102F3200000000000102020303030304040404046A
:102F42000404040505050505050505050505050532
:102F52000505050606060606060606060606060612
:102F620006060606060606060606060606060606FF
:102F720006060607070707070707070707070707E2
:102F820007070707070707070707070707070707CF
:102F920007070707070707070707070707070707BF
:102FA20007070707070707070707070707070707AF
:102FB2000707070808080808080808080808080892
:102FC200080808080808080808080808080808087F
:102FD200080808080808080808080808080808086F
:102FE200080808080808080808080808080808085F
:102FF200080808080808080808080808080808084F
:10300200080808080808080808080808080808083E
:10301200080808080808080808080808080808082E
:10302200080808080808080808080808080808081E
:043032000808080082
:00000001FF
