:100000000C9472000C9493000C9493000C94930045
:100010000C9493000C9493000C9493000C94930014
:100020000C9493000C9493000C9493000C94930004
:100030000C9493000C9493000C9493000C949300F4
:100040000C9493000C9493000C9493000C949300E4
:100050000C9493000C9493000C9493000C949300D4
:100060000C9493000C9493000C9493000C949300C4
:100070000C9493000C9493000C9493000C949300B4
:100080000C9493000C9493000C9493000C949300A4
:100090000C9493000C9493000C9493000C94930094
:1000A0000C9493000C9493000C9493000C94930084
:1000B0000C9493000C9493000C9493000C94930074
:1000C0000C9493000C9493000C9493000C94930064
:1000D0000C9493000C9493000C9493000C94930054
:1000E0000C94930011241FBECFEFD1E2DEBFCDBF31
:1000F00000E00CBF14E0A0E0B2E0E6EAF0E200E0CD
:100100000BBF02C007900D92AC3CB107D9F714E0C9
:10011000ACECB4E001C01D92A53DB107E1F70E942F
:1001200036020C9451100C940000382F80B390E0EC
:10013000032E02C0959587950A94E2F780FD0BC0C7
:1001400020B381E090E0032E02C0880F991F0A942B
:10015000E2F7282B20BB662359F021B381E090E021
:1001600002C0880F991F3A95E2F7282B21BB08950A
:1001700021B381E090E002C0880F991F3A95E2F721
:100180008095822381BB0895AF92BF92CF92DF9278
:10019000EF92FF920F931F930E949D0A5B016C01E7
:1001A0002BEA3AEA4AEA50E40E94B5077B018C0147
:1001B00020E030E040E85FE30E94BB09882314F4AC
:1001C00061E054C0C801B70120E030E04FE753E4DC
:1001D0000E945B0918160CF045C0C601B50120E06D
:1001E00030E04AE754E40E94AF085B016C0120E074
:1001F00030E04AE755E40E94B5077B018C0120E01E
:1002000030E040E85FE30E94BB0988231CF461E012
:1002100070E024C0C801B70120E03FEF4FE757E48A
:100220000E945B091816B4F4C601B50120E030E065
:1002300040E251E40E94B5070E94DF0580E991E0A9
:1002400005C0FC013197F1F76150704061157105EF
:10025000C1F70EC0C801B7010E94DF05CB010197AD
:10026000F1F706C0C801B7010E94DF056A95F1F7F2
:100270001F910F91FF90EF90DF90CF90BF90AF90C4
:10028000089508958AEA81B98FEF82B9089580E0D0
:1002900090E0AAE1BC0182B18A6A82B9613049F07A
:1002A000613028F0623039F0633041F406C01198B3
:1002B00005C0139803C0159801C017988A2F8A9516
:1002C000F1F780B1049902C040E001C042E000991A
:1002D00002C030E001C034E0029902C020E001C059
:1002E00028E090E056E0969587955A95E1F7817061
:1002F000482B432B422B20E030E050E0CA01022E75
:1003000002C0959587950A94E2F780FD0DC0FB0128
:10031000EE0FFF1FEE0FFF1FE20FF31FE155FC4F23
:100320008081882379F405C02F5F3F4F2430310549
:1003300029F7CB01019660E070E08430910509F463
:10034000AACFA8CF0895EF92FF921F93CF93DF9388
:10035000EC0110E060E9E62E61E0F62E0E94470114
:100360008A3299F0153048F4FE01E10FF11D8083C7
:100370001F5FFE01E10FF11D10828CEA9DE0F70185
:100380003197F1F70197D9F7E9CFDF91CF911F911D
:10039000FF90EF9008951F93182F62E370E00E9482
:1003A0003C0580EA9FE020E931E0F9013197F1F75F
:1003B0000197D9F7812F60E070E00E943C0588EE3C
:1003C00093E020E931E0F9013197F1F70197D9F78E
:1003D0001F9108950F931F93CF93DF93EC018B012F
:1003E000813191051CF0C0E1D0E005C01816190656
:1003F00014F0C1E0D0E0F801808191819E01281BBA
:10040000390B293031051CF02051304006C0FFEF78
:10041000283F3F0714F4205F3F4F121613066CF479
:1004200082E991E0AC01249FC001259F900D349F8B
:10043000900D112460E070E00FC02115310571F0BE
:100440008EE69EEFFC012E9FC0012F9F900D3E9FD8
:10045000900D112461E070E00E941D04F801D18329
:10046000C083DF91CF911F910F9108952F923F92FA
:100470004F925F926F927F928F929F92AF92BF92B4
:10048000CF92DF92EF92FF920F931F93DF93CF9360
:10049000CDB7DEB7CB54D0400FB6F894DEBF0FBE59
:1004A000CDBF0E944B038FEB93E02091AA033091C4
:1004B000AB034091AC035091AD036091AE030E9439
:1004C000BE040E94F8048AEA81B98FEF82B988ECF1
:1004D00090E00E946D0380E20E946A0380E20E9425
:1004E0009F0380E197E220E931E0F9013197F1F7CC
:1004F0000197D9F781E090E09A83898316E0E12E95
:10050000F12CEC0EFD1EBEE06B2E712C6C0E7D1ED0
:100510001E010894211C311CACE28A2E912C8C0EF9
:100520009D1EF1E94F2EF3E05F2EE0E9AE2EE1E0F3
:10053000BE2E7AE0C72ED12CCC0EDD1E1E82C70146
:100540000E94A301F70101900020E9F73197EE190D
:10055000FF09E230F10571F480E38A871B86C6014A
:10056000B7010E94600DC701B6010E946B0DE3E068
:10057000F0E006C0E430F1051CF080E092E021C01C
:10058000A5E0B0E0AC0FBD1FEA0FFB1F80818154D6
:10059000843018F086E392E014C02E81822F8053BD
:1005A000823048F49F81892F80538A3020F4213390
:1005B00059F497334CF084EA92E00E945D0385E1A0
:1005C00093E00E945D035EC0C7010E945D0384E763
:1005D00093E00E945D038E818B838F818C831D82CB
:1005E000CE0103960E94420D8C0100D000D0EDB7E1
:1005F000FEB73196ADB7BEB712967C926E92119748
:1006000087E793E09383828389819A8195838483AA
:100610000E947A0DADB7BEB716960FB6F894BEBF5E
:100620000FBEADBFC3010E945D03C801B1010E94AE
:10063000EA0100D000D0EDB7FEB73196ADB7BEB736
:1006400012969C928E9211975382428289819A814E
:10065000958384830E947A0D8DB79EB706960FB658
:10066000F8949EBF0FBE8DBFC4010E945D0380ED54
:1006700097E0F5013197F1F70197D9F781E090E024
:100680000E94CB0188E59BE1F5013197F1F70197D5
:1006900009F454CFF9CF88E08093C10086E08093BD
:1006A000C20087E68093C4000895982F8091C0000F
:1006B00085FFFCCF9093C6000895FC0107C0809190
:1006C000C00085FFFCCF31969093C600908199239E
:1006D000B1F708958093D20408959093D104809344
:1006E000D00408959093D4048093D3040895809106
:1006F000D20408958091D0049091D10408958091FE
:10070000D3049091D4040895682FE091CC04F09123
:10071000CD0483E090E019950895682FE091CC0412
:10072000F091CD0482E090E019950895682FE09152
:10073000CC04F091CD0487E090E0199508958430C1
:1007400051F1853030F4813071F0823009F074C09D
:1007500012C0803109F43FC0803209F455C088309E
:1007600009F06AC020C0E091CC04F091CD0486E08D
:1007700090E060E007C0E091CC04F091CD0486E009
:1007800090E061E01995E091CC04F091CD0485E012
:1007900090E060E017C0E091CC04F091CD0486E0D9
:1007A00090E060E007C0E091CC04F091CD0486E0D9
:1007B00090E061E01995E091CC04F091CD0485E0E2
:1007C00090E061E01995E091CC04F091CD0484E0D3
:1007D00090E060E017C0E091CC04F091CD0486E099
:1007E00090E060E01995E091CC04F091CD0485E0B3
:1007F00090E060E01995E091CC04F091CD0484E0A4
:1008000090E061E019950895E091CC04F091CD0459
:1008100086E090E061E01995E091CC04F091CD0480
:1008200085E090E061E01995E091CC04F091CD0471
:1008300084E090E061E019950895CF92DF92EF9205
:10084000FF920F931F93CF93DF936C01672B41F4BB
:10085000E091CC04F091CD0480E090E060E007C02E
:10086000E091CC04F091CD0480E090E061E0199536
:1008700085E38A95F1F76091D0047091D10480E00E
:1008800090E00E949D0A9B01AC0160EC71EE84E651
:100890009CE40E94AF087B018C016091D20470E05F
:1008A000882777FD8095982F0E94EB099B01AC016A
:1008B000C801B7010E94AF087B018C016091D3048D
:1008C0007091D40480E090E00E949D0A9B01AC01ED
:1008D000C801B7010E94AF080E94DF05F62E072F5E
:1008E000182FE92EC0E0D0E023C0E091CC04F091B5
:1008F000CD0481E090E061E01995E091CE04F091A3
:10090000CF046F2D702F812F9E2D1995E091CC046F
:10091000F091CD0481E090E060E01995E091CE0483
:10092000F091CF046F2D702F812F9E2D1995219658
:10093000CC15DD05D0F2DF91CF911F910F91FF9083
:10094000EF90DF90CF9008952091D20430E0409155
:10095000D0045091D104F901E49F9001E59F300D3E
:10096000F49F300D1124AC01249FC001259F900DF0
:10097000349F900D11240E941D040895DF93CF939E
:1009800000D00F920F92CDB7DEB7FC0129833A83D6
:100990004B835C836D83242F309711F480E020C05B
:1009A00080819181A281B3818093CC049093CD0406
:1009B000A093CE04B093CF044B83A0EDB4E0FE012E
:1009C000319685E001900D928150E1F7822F0E94CF
:1009D0009F0381E00E948D0381E00E94840381E0F7
:1009E0000F900F900F900F900F90CF91DF9108957F
:1009F00084B1806E84B9A0E8B0E08C91886A8C9351
:100A0000E1E8F0E08081806180838081886080837C
:100A10008C9182608C938081826080834FE35CE95B
:100A2000509387004093860028EE33E0309389008E
:100A30002093880030938B0020938A0030938D00A0
:100A400020938C006B9AA0E9B0E08C9180688C9325
:100A5000E1E9F0E08081886180838C9182608C93F1
:100A600080818260808350939700409396003093FA
:100A70009900209398000895DF92EF92FF920F93D0
:100A80001F93D82E882777FD8095982F0E94EB0919
:100A900020E030E044E353E40E94AF0820E030E07F
:100AA0004AEF54E40E94B50720E030E04AEF53E4F7
:100AB0000E9488070E94490A882777FD8095982F11
:100AC0000E94EB097B018C0120E030E44CE155E40D
:100AD0000E945B0918165CF40F2EF0E0EF2EF0E494
:100AE000FF2EFCE10F2FF5E41F2FF02D14C0C801DD
:100AF000B70120E030E04AEF53E40E94BB098823AD
:100B000054F40F2EF0E0EF2EF0E0FF2EFAEF0F2F4F
:100B1000F3E41F2FF02D84E08D15CCF11D1484F427
:100B200082E0D816D1F08D1524F081E0D816D9F5E1
:100B300007C083E0D816F1F084E0D816A1F527C0ED
:100B4000C801B701A80197010E9488070E94DF052C
:100B5000709389006093880026C0C801B701A8017E
:100B600097010E9488070E94DF0570938B006093B5
:100B70008A0019C0C801B701A80197010E9488071F
:100B80000E94DF0570938D0060938C000CC0C8013B
:100B9000B701A80197010E9488070E94DF057093A2
:100BA0009900609398001F910F91FF90EF90DF9054
:100BB0000895E1E8F0E08081887F80830895EF92D6
:100BC000FF920F931F937B018C0120E030E040E007
:100BD0005FE40E948B0988238CF0C801B70120E0F4
:100BE00030E040E05FE40E9457070E94490A9B0101
:100BF000AC01205030404040504806C0C801B70109
:100C00000E94490A9B01AC01B901CA011F910F91D1
:100C1000FF90EF900895A0E0B0E0E1E1F6E00C94E1
:100C20000B0DDC012B01FA019C91923008F439C1C3
:100C3000EB018881823008F433C1943069F4843048
:100C400009F02FC111969C9111978981981709F489
:100C500028C1A3ECB3E025C1843009F421C182305E
:100C6000A9F4923009F01DC19A01AD0188E0EA01B2
:100C70000990AE01E90109929E018150C1F7E2019C
:100C8000898111969C918923818308C1923009F44E
:100C900007C112962D903C901397EB018A819B819E
:100CA0001496AD90BD90CD90DC901797EC80FD80B0
:100CB0000E811F819101281B390BB90137FF04C038
:100CC00066277727621B730B603271050CF061C0D9
:100CD000121613066CF537014801062E04C09694CF
:100CE0008794779467940A94D2F721E030E040E04B
:100CF00050E004C0220F331F441F551F6A95D2F7DE
:100D000021503040404050402E213F21402351236C
:100D1000211531054105510521F021E030E040E089
:100D200050E079018A01E628F728082919293CC0F2
:100D3000232BD1F1260E371E35014601062E04C0A5
:100D400096948794779467940A94D2F721E030E0E0
:100D500040E050E004C0220F331F441F551F6A9526
:100D6000D2F721503040404050402A213B214C21B5
:100D70005D21211531054105510521F021E030E0CB
:100D800040E050E059016A01A628B728C828D928B0
:100D90000BC0821593052CF01C01AA24BB2465010D
:100DA00003C0EE24FF24870111969C91D201119675
:100DB0008C91981709F445C0992339F0A80197013F
:100DC0002A193B094C095D0906C0A60195012E1997
:100DD0003F09400B510B57FD08C01182338222821C
:100DE00024833583468357831DC081E0818333820A
:100DF000228288279927DC01821B930BA40BB50B59
:100E000084839583A683B7830DC0220F331F441FAD
:100E1000551F2483358346835783828193810197AD
:100E2000938382832481358146815781DA01C90108
:100E30000197A109B1098F5F9F4FAF4FBF4328F3BF
:100E40000BC0918333822282EA0CFB1C0C1D1D1DFA
:100E5000E482F5820683178383E0808324813581D1
:100E60004681578157FF1AC0C901AA2797FDA0954F
:100E7000BA2F81709070A070B070569547953795D5
:100E80002795822B932BA42BB52B84839583A68344
:100E9000B78382819381019693838283DF0101C0AE
:100EA000D201CD01CDB7DEB7E2E10C94270DA0E26F
:100EB000B0E0EDE5F7E00C94170D69837A838B833E
:100EC0009C832D833E834F835887E9E0EE2EF12CDF
:100ED000EC0EFD1ECE010196B7010E943A0C8E0168
:100EE0000F5E1F4FCE010596B8010E943A0C8A8909
:100EF00091E089278A8BC701B801AE01475E5F4F39
:100F00000E940B060E94650BA096E6E00C94330D40
:100F1000A0E2B0E0EEE8F7E00C94170D69837A8365
:100F20008B839C832D833E834F835887F9E0EF2E7C
:100F3000F12CEC0EFD1ECE010196B7010E943A0C79
:100F40008E010F5E1F4FCE010596B8010E943A0C2C
:100F5000C701B801AE01475E5F4F0E940B060E94B9
:100F6000650BA096E6E00C94330DA0E2B0E0EBEB4D
:100F7000F7E00C940B0D69837A838B839C832D831C
:100F80003E834F835887CE010196BE01675F7F4F36
:100F90000E943A0CCE010596BE016F5E7F4F0E9403
:100FA0003A0C9985923088F089898230C8F0943063
:100FB00019F4823051F404C0843029F4923081F461
:100FC00083EC93E0C6C0923049F420E09A858A8988
:100FD000981321E02A87CE010996BBC0823049F4DC
:100FE00020E09A858A89981321E02A8BCE014196C8
:100FF000B0C02D843E844F8458886D887E888F8849
:10100000988CEE24FF248701AA24BB24650140E0CC
:1010100050E060E070E0E0E0F0E0C10181709070CD
:10102000892BE9F0E60CF71C081D191D9A01AB018C
:101030002A0D3B1D4C1D5D1D80E090E0A0E0B0E05E
:10104000E614F7040805190520F481E090E0A0E01B
:10105000B0E0BA01A901480F591F6A1F7B1FAA0CF3
:10106000BB1CCC1CDD1C97FE08C081E090E0A0E01A
:10107000B0E0A82AB92ACA2ADB2A3196E032F10563
:1010800049F0660C771C881C991C56944794379439
:101090002794C3CFFA85EA892B893C898B859C8567
:1010A000280F391F2E5F3F4F17C0CA018170907003
:1010B000892B61F016950795F794E79480E090E00E
:1010C000A0E0B0E8E82AF92A0A2B1B2B7695679551
:1010D000579547952F5F3F4F77FDE7CF0CC0440FE3
:1010E000551F661F771F17FD4160EE0CFF1C001F88
:1010F000111F21503040403090E0590790E06907BF
:1011000090E4790760F32B8F3C8FDB01CA018F7766
:101110009070A070B07080349105A105B10561F4A4
:1011200047FD0AC0E114F1040105110529F0405CF6
:101130005F4F6F4F7F4F40781A8EFE1711F081E09E
:101140008A8F4D8F5E8F6F8F78A383E0898FCE015A
:1011500049960E94650BA096E2E10C94270DA8E148
:10116000B0E0E5EBF8E00C94130D69837A838B8390
:101170009C832D833E834F835887B9E0EB2EF12C5F
:10118000EC0EFD1ECE010196B7010E943A0C8E01B5
:101190000F5E1F4FCE010596B8010E943A0C2985BB
:1011A000223008F47EC03989323010F4B8017CC096
:1011B0008A859A8989278A87243011F0223031F470
:1011C000231709F06EC063EC73E06EC0343039F45D
:1011D0001D861E861F86188A1C861B8604C0323018
:1011E00021F484E08987B7015FC02B853C858B891A
:1011F0009C89281B390B3C872B87ED84FE840F8547
:101200001889AD88BE88CF88D88CEA14FB040C05F9
:101210001D0540F4EE0CFF1C001F111F2150304033
:101220003C872B8720E030E040E050E080E090E019
:10123000A0E0B0E460E070E0EA14FB040C051D05DA
:1012400040F0282B392B4A2B5B2BEA18FB080C09A2
:101250001D09B695A79597958795EE0CFF1C001F65
:10126000111F6F5F7F4F6F31710531F7DA01C901CF
:101270008F779070A070B07080349105A105B10592
:1012800061F427FD0AC0E114F1040105110529F0FC
:10129000205C3F4F4F4F5F4F20782D873E874F8711
:1012A000588BBE01675F7F4FCB010E94650B68962C
:1012B000EAE00C942F0DA8E1B0E0E1E6F9E00C942F
:1012C000170D69837A838B839C832D833E834F83A1
:1012D000588789E0E82EF12CEC0EFD1ECE01019618
:1012E000B7010E943A0C8E010F5E1F4FCE0105968A
:1012F000B8010E943A0C8985823040F08989823099
:1013000028F0C701B8010E94B20C01C08FEF6896A7
:10131000E6E00C94330DA8E1B0E0E1E9F9E00C94CB
:10132000170D69837A838B839C832D833E834F8340
:10133000588789E0E82EF12CEC0EFD1ECE010196B7
:10134000B7010E943A0C8E010F5E1F4FCE01059629
:10135000B8010E943A0C8985823040F08989823038
:1013600028F0C701B8010E94B20C01C08FEF689647
:10137000E6E00C94330DA8E1B0E0E1ECF9E00C9468
:10138000170D69837A838B839C832D833E834F83E0
:10139000588789E0E82EF12CEC0EFD1ECE01019657
:1013A000B7010E943A0C8E010F5E1F4FCE010596C9
:1013B000B8010E943A0C8985823040F089898230D8
:1013C00028F0C701B8010E94B20C01C081E0689604
:1013D000E6E00C94330DA8E0B0E0E1EFF9E00C9406
:1013E000140D9B01AC0183E08983DA01C9018827D0
:1013F000B7FD83959927AA27BB27B82E211531055C
:101400004105510519F482E089833AC08823A9F087
:10141000203080E0380780E0480780E8580729F44A
:1014200060E070E080E09FEC30C0EE24FF24870194
:10143000E21AF30A040B150B02C079018A018EE14E
:10144000C82ED12CDC82CB82ED82FE820F831887DE
:10145000C801B7010E94160B01971816190684F4EB
:10146000082E04C0EE0CFF1C001F111F0A94D2F7B7
:10147000ED82FE820F831887C81AD90ADC82CB82DC
:10148000BA82CE0101960E94650B2896E9E00C9481
:10149000300DACE0B0E0EFE4FAE00C941B0D698392
:1014A0007A838B839C83CE010196BE016B5F7F4F55
:1014B0000E943A0C8D81823061F1823050F184308B
:1014C00021F48E81882351F12EC02F81388537FD7C
:1014D00020C06E812F3131051CF06623F9F023C046
:1014E0008EE190E0821B930B29853A854B855C85C4
:1014F00004C056954795379527958A95D2F7662368
:10150000B1F050954095309521953F4F4F4F5F4F2B
:101510000EC020E030E040E050E009C02FEF3FEF88
:101520004FEF5FE704C020E030E040E050E8B90151
:10153000CA012C96E2E00C94370DA8E0B0E0E3EA93
:10154000FAE00C94130D7B018C0161157105810586
:10155000910519F482E0898360C083E089838EE17C
:10156000C82ED12CDC82CB82ED82FE820F831887BD
:10157000C801B7010E94160BFC013197F7FF3BC071
:10158000222733272E1B3F0B57016801022E04C070
:10159000D694C794B794A7940A94D2F740E050E049
:1015A00060E070E081E090E0A0E0B0E004C0880F6F
:1015B000991FAA1FBB1F2A95D2F70197A109B1094C
:1015C0008E219F21A023B1230097A105B10521F011
:1015D00041E050E060E070E04A295B296C297D29F8
:1015E0004D835E836F8378878EE190E08E1B9F0B27
:1015F0009C838B8312C0309781F00E2E04C0EE0CBA
:10160000FF1C001F111F0A94D2F7ED82FE820F8388
:101610001887CE1ADF0ADC82CB821A82CE010196AD
:101620000E94650B2896EAE00C942F0DEF92FF9232
:101630000F931F937B018C0180E0E81680E0F80691
:1016400081E0080780E0180788F48FEFE816F104BE
:101650000105110531F028F088E090E0A0E0B0E04D
:1016600017C080E090E0A0E0B0E012C080E0E81693
:1016700080E0F80680E0080781E0180728F088E19C
:1016800090E0A0E0B0E004C080E190E0A0E0B0E035
:1016900020E230E040E050E0281B390B4A0B5B0BA6
:1016A00004C016950795F794E7948A95D2F7F70149
:1016B000E553FC4F8081281B310941095109C901BB
:1016C0001F910F91FF90EF900895DF92EF92FF929C
:1016D0000F931F93FC01E480F58006811781D18070
:1016E0008081823048F480E090E0A0E1B0E0E82A18
:1016F000F92A0A2B1B2BA5C0843009F49FC0823025
:1017000021F4EE24FF24870105C0E114F104010552
:10171000110519F4E0E0F0E096C0628173819FEF5B
:10172000623879070CF05BC022E83FEF261B370BCD
:101730002A3131052CF020E030E040E050E02AC0B2
:10174000B801A701022E04C0769567955795479575
:101750000A94D2F781E090E0A0E0B0E004C0880FE6
:10176000991FAA1FBB1F2A95D2F70197A109B1099A
:101770008E219F21A023B1230097A105B10521F05F
:1017800081E090E0A0E0B0E09A01AB01282B392B7A
:101790004A2B5B2BDA01C9018F779070A070B07073
:1017A00080349105A105B10539F427FF09C0205CFB
:1017B0003F4F4F4F5F4F04C0215C3F4F4F4F5F4F34
:1017C000E0E0F0E02030A0E03A07A0E04A07A0E423
:1017D0005A0710F0E1E0F0E079018A0127C0603893
:1017E000710564F5FB01E158FF4FD801C7018F7700
:1017F0009070A070B07080349105A105B10539F4E6
:10180000E7FE0DC080E490E0A0E0B0E004C08FE30C
:1018100090E0A0E0B0E0E80EF91E0A1F1B1F17FFC2
:1018200005C016950795F794E794319687E01695CD
:101830000795F794E7948A95D1F705C0EE24FF2425
:101840008701EFEFF0E06E2F679566276795902F81
:101850009F77D794DD24D7948E2F8695492F462BDA
:10186000582F5D29B701CA011F910F91FF90EF908A
:10187000DF900895FC01DB01408151812281622FBC
:101880006F7770E0221F2227221F9381892F880FF4
:10189000822B282F30E0991F9927991F11969C932E
:1018A000119721153105A9F54115510561057105FE
:1018B00011F482E037C082E89FEF13969C938E93D9
:1018C00012979A01AB0167E0220F331F441F551F87
:1018D0006A95D1F783E08C930DC0220F331F441F0C
:1018E000551F12968D919C911397019713969C9377
:1018F0008E931297203080E0380780E0480780E41C
:10190000580758F314962D933D934D935C93179776
:1019100008952F3F310579F4411551056105710591
:1019200019F484E08C93089564FF03C081E08C93E4
:1019300012C01C9210C02F57304013963C932E9328
:10194000129783E08C9387E0440F551F661F771F23
:101950008A95D1F7706414964D935D936D937C9343
:10196000179708951F93DC01FB019C91923008F4B6
:1019700047C08081823008F443C0943051F41196FE
:101980001C91843099F58181682F70E0611B710989
:101990003FC0843021F0923031F48230B9F181813E
:1019A000882389F12DC011961C9111978230F1F096
:1019B00081811817D9F412962D913C911397828149
:1019C00093818217930794F028173907BCF0149677
:1019D0008D919D910D90BC91A02D248135814681E2
:1019E0005781281739074A075B0718F4112341F07C
:1019F0000AC082179307A407B50740F4112319F012
:101A000061E070E005C06FEF7FEF02C060E070E062
:101A1000CB011F9108952F923F924F925F926F9248
:101A20007F928F929F92AF92BF92CF92DF92EF926E
:101A3000FF920F931F93CF93DF93CDB7DEB7CA1BEF
:101A4000DB0B0FB6F894DEBF0FBECDBF19942A880A
:101A5000398848885F846E847D848C849B84AA84C2
:101A6000B984C884DF80EE80FD800C811B81AA814F
:101A7000B981CE0FD11D0FB6F894DEBF0FBECDBF1A
:101A8000ED010895FC0188279927E89421912032DF
:101A9000E9F3293010F02E30C8F32B3241F02D320B
:101AA00039F4689404C00E94720D820F911D219137
:101AB00020532A30C0F31EF4909581959F4F0895CE
:101AC000FB01DC010D900020E9F7119701900D92C8
:101AD0000020E1F70895FB01DC0101900D92002048
:101AE000E1F708957AE0979F902D879F802D910DC3
:101AF000112408950F931F93DF93CF93CDB7DEB7D3
:101B00002E970FB6F894DEBF0FBECDBF0E891F898A
:101B100086E08C831A8309838FEF9FE79E838D83F2
:101B20009E01265E3F4FCE010196688D798DA901F9
:101B30000E94AB0D2F813885020F131FF801108210
:101B40002E960FB6F894DEBF0FBECDBFCF91DF91BA
:101B50001F910F9108952F923F924F925F926F9233
:101B60007F928F929F92AF92BF92CF92DF92EF922D
:101B7000FF920F931F93DF93CF93CDB7DEB72B97D1
:101B80000FB6F894DEBF0FBECDBF3C012B015A014A
:101B9000FC0117821682838181FD03C06FEF7FEF06
:101BA000C6C19AE0892E1E010894211C311CF30144
:101BB0002381F20123FD859123FF81912F01882349
:101BC00009F4B2C1853239F423FD859123FF819157
:101BD0002F01853229F490E0B3010E94C70FE7CFAF
:101BE000982FFF24EE249924FFE1FF15D0F09B32BB
:101BF00069F09C3228F4903259F0933291F40EC07F
:101C00009D3249F0903369F441E024C052E0F52A56
:101C100084E0F82A28C098E0F92A25C0E0E1FE2AED
:101C200022C0F7FC29C0892F80538A3070F4F6FE59
:101C300005C0989C902C1124980E15C0E89CE02CAF
:101C40001124E80EF0E2FF2A0EC09E3229F4F6FCC1
:101C50006BC140E4F42A07C09C3619F450E8F52A19
:101C600002C0983649F4F20123FD959123FF91912A
:101C70002F01992309F0B8CF892F8554833018F0AC
:101C80008052833038F444E050E0A40EB51E5FE388
:101C900059830FC0933631F0933779F0933509F0BB
:101CA00056C020C0F5018081898342E050E0A40E37
:101CB000B51E610101E010E012C0F501C080D180C5
:101CC000F6FC03C06FEF7FEF02C0692D70E042E0C9
:101CD00050E0A40EB51EC6010E94BC0F8C015FE748
:101CE000F52214C0F501C080D180F6FC03C06FEF6F
:101CF0007FEF02C0692D70E042E050E0A40EB51EF7
:101D0000C6010E94B10F8C0150E8F52AF3FE07C00E
:101D10001AC080E290E0B3010E94C70FEA948E2DB2
:101D200090E008171907A8F30EC0F601F7FC85919B
:101D3000F7FE81916F0190E0B3010E94C70FE1109F
:101D4000EA94015010400115110579F7EAC0943664
:101D500011F0993669F5F7FE08C0F501208131814F
:101D60004281538184E090E00AC0F5018081918135
:101D70009C01442737FD4095542F82E090E0A80E47
:101D8000B91E9FE6F92257FF09C05095409530953E
:101D900021953F4F4F4F5F4FE0E8FE2ACA01B9013E
:101DA000A1012AE030E00E94F30FD82ED21840C0E3
:101DB000953729F41F2D1F7E2AE030E01DC01F2D0E
:101DC000197F9F3661F0903720F4983509F0ACC048
:101DD0000FC0903739F0983709F0A6C004C028E04A
:101DE00030E00AC0106114FD146020E130E004C04E
:101DF00014FD166020E132E017FF08C0F501608194
:101E000071818281938144E050E008C0F5018081B6
:101E10009181BC0180E090E042E050E0A40EB51E4C
:101E2000A1010E94F30FD82ED2188FE7F82EF122CD
:101E3000F6FE0BC05EEFF522D91438F4F4FE07C0AD
:101E4000F2FC05C08FEEF82202C01D2D01C0192D35
:101E5000F4FE0DC0FE01ED0DF11D8081803319F4FB
:101E600099EEF92208C01F5FF2FE05C003C08F2D56
:101E7000867809F01F5F0F2DF3FC14C0F0FE0FC031
:101E80001E1510F09D2C0BC09D2C9E0C911A1E2D22
:101E900006C080E290E0B3010E94C70F1F5F1E15CD
:101EA000C0F304C01E1510F4E11A01C0EE2404FFB3
:101EB0000FC080E390E0B3010E94C70F02FF1DC076
:101EC00001FD03C088E790E00EC088E590E00BC0FC
:101ED000802F867891F001FF02C08BE201C080E282
:101EE000F7FC8DE290E0B3010E94C70F06C080E3CB
:101EF00090E0B3010E94C70F9A94D914C0F3DA940A
:101F0000F101ED0DF11D808190E0B3010E94C70F3A
:101F1000DD20A9F706C080E290E0B3010E94C70F60
:101F2000EA94EE20C1F743CEF30166817781CB01BD
:101F30002B960FB6F894DEBF0FBECDBFCF91DF91C9
:101F40001F910F91FF90EF90DF90CF90BF90AF90D7
:101F50009F908F907F906F905F904F903F902F90C9
:101F60000895FC010590615070400110D8F78095EC
:101F700090958E0F9F1F0895FC0161507040019055
:101F80000110D8F7809590958E0F9F1F08950F939D
:101F90001F93CF93DF938C01EB018B8181FF1BC0DB
:101FA00082FF0DC02E813F818C819D8128173907CA
:101FB00064F4E881F9810193F983E88306C0E88538
:101FC000F985802F1995892B31F48E819F81019697
:101FD0009F838E8302C00FEF1FEFC801DF91CF9167
:101FE0001F910F910895FA01AA27283051F120314D
:101FF00081F1E8946F936E7F6E5F7F4F8F4F9F4F9D
:10200000AF4FB1E03ED0B4E03CD0670F781F891FDE
:102010009A1FA11D680F791F8A1F911DA11D6A0FAC
:10202000711D811D911DA11D20D009F468943F915F
:102030002AE0269F11243019305D3193DEF6CF015E
:102040000895462F4770405D4193B3E00FD0C9F724
:10205000F6CF462F4F70405D4A3318F0495D31FD91
:102060004052419302D0A9F7EACFB4E0A6959795E4
:10207000879577956795BA95C9F7009761057105BA
:1020800008959B01AC010A2E069457954795379504
:102090002795BA95C9F7620F731F841F951FA01D5E
:0620A0000895F894FFCF43
:1020A600496E76616C696420696E7075742E20497C
:1020B6006E707574206C6F6E676572207468616EE1
:1020C6002074687265652063686172616374657205
:1020D600732E200D0A00496E76616C696420696E64
:1020E6007075742E2020456E7465722061206361C0
:1020F6007264206E756D62657220666F6C6C6F77A8
:102106006564206279207468652072656164657211
:1021160020796F7520776F756C64206C696B65200C
:10212600697420746F20626520726561642062792B
:102136002E20452E672E203141206F7220303141EE
:102146002E0D0A00496E76616C696420696E7075A1
:10215600742E2045697468657220796F75722069DE
:102166006E7075742063617264206E756D6265723F
:10217600206973206F7574206F6620626F756E64B8
:10218600732C206F7220796F7527766520656E74C3
:102196006572656420612076616C75652077697467
:1021A60068207468652077726F6E6720666F726D3F
:1021B60061742E2000456E74657220612063617221
:1021C60064206E756D62657220666F6C6C6F7765E4
:1021D6006420627920746865207265616465722086
:1021E600796F7520776F756C64206C696B652069F3
:1021F6007420746F20626520726561642062792E96
:1022060020452E672E203141206F72203031412E1D
:10221600200D0A000D0A0063757272656E742070D7
:102226006F73206265666F7265203D2025640D0A16
:102236000063757272656E7420706F7320616674C8
:102246006572203D2025640D0A00C80001C80031D2
:1022560032334134353642373839432A30234495B0
:1022660000C400000000000000000000010202039C
:102276000303030404040404040404050505050516
:1022860005050505050505050505050606060606F3
:1022960006060606060606060606060606060606D8
:1022A60006060606060606060606060707070707C3
:1022B60007070707070707070707070707070707A8
:1022C6000707070707070707070707070707070798
:1022D6000707070707070707070707070707070788
:1022E6000707070707070707070707080808080873
:1022F6000808080808080808080808080808080858
:102306000808080808080808080808080808080847
:102316000808080808080808080808080808080837
:102326000808080808080808080808080808080827
:102336000808080808080808080808080808080817
:102346000808080808080808080808080808080807
:1023560008080808080808080808080808080808F7
:0C23660008080808080808080808080013
:00000001FF
