:100000000C9472000C9493000C9493000C94930045
:100010000C9493000C9493000C9493000C94930014
:100020000C9493000C9493000C9493000C94930004
:100030000C9493000C9493000C9493000C949300F4
:100040000C9493000C9493000C9493000C949300E4
:100050000C9493000C9493000C9493000C949300D4
:100060000C9493000C9493000C9493000C949300C4
:100070000C9493000C9493000C9493000C949300B4
:100080000C9493000C9493000C9493000C949300A4
:100090000C9493000C9493000C9493000C94930094
:1000A0000C9493000C9493000C9493000C94930084
:1000B0000C9493000C9493000C9493000C94930074
:1000C0000C9493000C9493000C9493000C94930064
:1000D0000C9493000C9493000C9493000C94930054
:1000E0000C94930011241FBECFEFD1E2DEBFCDBF31
:1000F00000E00CBF16E0A0E0B2E0EAE6F6E200E0C5
:100100000BBF02C007900D92A03FB107D9F716E0D0
:10011000A0EFB6E001C01D92AC3FB107E1F70E942D
:1001200045020C9433130C940000382F80B390E0F8
:10013000032E02C0959587950A94E2F780FD0BC0C7
:1001400020B381E090E0032E02C0880F991F0A942B
:10015000E2F7282B20BB662359F021B381E090E021
:1001600002C0880F991F3A95E2F7282B21BB08950A
:1001700021B381E090E002C0880F991F3A95E2F721
:100180008095822381BB0895AF92BF92CF92DF9278
:10019000EF92FF920F931F930E943E0D5B016C0143
:1001A0002BEA3AEA4AEA50E40E94560A7B018C01A3
:1001B00020E030E040E85FE30E945C0C882314F408
:1001C00061E054C0C801B70120E030E04FE753E4DC
:1001D0000E94FC0B18160CF045C0C601B50120E0CA
:1001E00030E04AE754E40E94500B5B016C0120E0D0
:1001F00030E04AE755E40E94560A7B018C0120E07A
:1002000030E040E85FE30E945C0C88231CF461E06E
:1002100070E024C0C801B70120E03FEF4FE757E48A
:100220000E94FC0B1816B4F4C601B50120E030E0C2
:1002300040E251E40E94560A0E94800880E991E061
:1002400005C0FC013197F1F76150704061157105EF
:10025000C1F70EC0C801B7010E948008CB01019709
:10026000F1F706C0C801B7010E9480086A95F1F74E
:100270001F910F91FF90EF90DF90CF90BF90AF90C4
:10028000089508958AEA81B98FEF82B9089580E0D0
:1002900090E0AAE1BC0182B18A6A82B9613049F07A
:1002A000613028F0623039F0633041F406C01198B3
:1002B00005C0139803C0159801C017988A2F8A9516
:1002C000F1F780B1049902C040E001C042E000991A
:1002D00002C030E001C034E0029902C020E001C059
:1002E00028E090E056E0969587955A95E1F7817061
:1002F000482B432B422B20E030E050E0CA01022E75
:1003000002C0959587950A94E2F780FD0DC0FB0128
:10031000EE0FFF1FEE0FFF1FE20FF31FE750FC4F22
:100320008081882379F405C02F5F3F4F2430310549
:1003300029F7CB01019660E070E08430910509F463
:10034000AACFA8CF0895EF92FF921F93CF93DF9388
:10035000EC0181E00E94490780E092E00E943C07A6
:1003600010E060E9E62E61E0F62E0E9447018A3235
:1003700041F40E945107DF91CF911F91FF90EF90C0
:100380000895153048F4FE01E10FF11D80831F5FD1
:10039000FE01E10FF11D108282E00E944907CE01AB
:1003A0000E943C078CEA9DE0F7013197F1F7019735
:1003B000D9F7DBCF1F93182F62E370E00E9460052E
:1003C00080EA9FE020E931E0F9013197F1F70197E8
:1003D000D9F7812F60E070E00E94600588EE93E01D
:1003E00020E931E0F9013197F1F70197D9F71F9131
:1003F00008950F931F93CF93DF93EC018B0181310D
:1004000091051CF0C0E1D0E005C01816190614F0E3
:10041000C1E0D0E0F801808191819E01281B390B59
:10042000293031051CF02051304006C0FFEF283F35
:100430003F0714F4205F3F4F121613066CF482E955
:1004400091E0AC01249FC001259F900D349F900D39
:10045000112460E070E00FC02115310571F08EE6C7
:100460009EEFFC012E9FC0012F9F900D3E9F900D8F
:10047000112461E070E00E944104F801D183C0833F
:10048000DF91CF911F910F9108952F923F924F923C
:100490005F926F927F928F929F92AF92BF92CF9214
:1004A000DF92EF92FF920F931F93DF93CF93CDB71D
:1004B000DEB7AD970FB6F894DEBF0FBECDBF0E947A
:1004C000900784E00E94490788E092E00E943C0780
:1004D0000E946F0389E094E02091F4033091F503CA
:1004E0004091F6035091F7036091F8030E94E204F3
:1004F0000E941C058AEA81B98FEF82B988EC90E0EE
:100500000E94910380E20E948E0380E20E94C30356
:1005100081E090E09A83898380E197E220E931E0ED
:10052000F9013197F1F70197D9F70E945107B6E029
:10053000CB2ED12CCC0EDD1E1E010894211C311CAB
:10054000AEE06A2E712C6C0E7D1EFFED4F2EF3E097
:100550005F2EE0E98E2EE1E09E2E7AE0A72EB12CF0
:10056000AC0EBD1E1E82C6010E94A301F6010190C1
:100570000020E9F73197EC19FD09E230F10571F43B
:1005800080E38A871B86C501B6010E944210C6011E
:10059000B5010E944D10E3E0F0E00DC0E430F1053C
:1005A00054F088E192E00E94810384E00E944907B0
:1005B0008EE492E01AC0A5E0B0E0AC0FBD1FEA0FD8
:1005C000FB1F80818154843098F08EE592E00E9478
:1005D000810383E00E9449078CEC92E00E943C0773
:1005E00084E00E9449078EED92E00E943C076DC0B6
:1005F0002E81822F8053823048F49F81892F80532F
:100600008A3020F42133B9F49733ACF08DEE92E0C8
:100610000E9481038EE593E00E94810384E00E94A2
:1006200049078DEB93E00E943C0785E00E94490753
:100630008FEC93E0DACFC6010E9481038CED93E04A
:100640000E9481038E818B838F818C831D82CE01DA
:1006500003960E9424107C010885B1010E94F901D3
:100660008DB79EB708970FB6F8949EBF0FBE8DBF8B
:10067000EDB7FEB73196ADB7BEB712967C926E92CB
:10068000119753824282F582E482112707FD10956B
:10069000178306830E945C108DB79EB708960FB62D
:1006A000F8949EBF0FBE8DBF84E00E944907C3012E
:1006B0000E943C0780ED97E0F4013197F1F7019734
:1006C000D9F781E090E00E94DA010E94510788E5A5
:1006D0009BE1F4013197F1F70197D9F743CF88E017
:1006E0008093C10086E08093C20087E68093C400B7
:1006F0000895982F8091C00085FFFCCF9093C6008D
:100700000895FC0107C08091C00085FFFCCF3196A1
:100710009093C60090819923B1F708958093F606CF
:1007200008959093F5068093F40608959093F80643
:100730008093F70608958091F60608958091F40657
:100740009091F50608958091F7069091F806089526
:10075000682FE091F006F091F10683E090E01995A2
:100760000895682FE091F006F091F10682E090E0A4
:1007700019950895682FE091F006F091F10687E051
:1007800090E019950895843051F1853030F481302E
:1007900071F0823009F074C012C0803109F43FC09A
:1007A000803209F455C0883009F06AC020C0E09159
:1007B000F006F091F10686E090E060E007C0E0917D
:1007C000F006F091F10686E090E061E01995E09185
:1007D000F006F091F10685E090E060E017C0E0914E
:1007E000F006F091F10686E090E060E007C0E0914D
:1007F000F006F091F10686E090E061E01995E09155
:10080000F006F091F10685E090E061E01995E09145
:10081000F006F091F10684E090E060E017C0E0910E
:10082000F006F091F10686E090E060E01995E09125
:10083000F006F091F10685E090E060E01995E09116
:10084000F006F091F10684E090E061E019950895DA
:10085000E091F006F091F10686E090E061E01995F4
:10086000E091F006F091F10685E090E061E01995E5
:10087000E091F006F091F10684E090E061E01995D6
:100880000895CF92DF92EF92FF920F931F93CF9331
:10089000DF936C01672B41F4E091F006F091F106D3
:1008A00080E090E060E007C0E091F006F091F10692
:1008B00080E090E061E0199585E38A95F1F7609119
:1008C000F4067091F50680E090E00E943E0D9B01D9
:1008D000AC0160EC71EE84E69CE40E94500B7B015D
:1008E0008C016091F60670E0882777FD8095982F3F
:1008F0000E948C0C9B01AC01C801B7010E94500BF7
:100900007B018C016091F7067091F80680E090E021
:100910000E943E0D9B01AC01C801B7010E94500B23
:100920000E948008F62E072F182FE92EC0E0D0E095
:1009300023C0E091F006F091F10681E090E061E0E3
:100940001995E091F206F091F3066F2D702F812F2B
:100950009E2D1995E091F006F091F10681E090E06E
:1009600060E01995E091F206F091F3066F2D702F7B
:10097000812F9E2D19952196CC15DD05D0F2DF91A2
:10098000CF911F910F91FF90EF90DF90CF9008953E
:100990002091F60630E04091F4065091F506F901F9
:1009A000E49F9001E59F300DF49F300D1124AC01C0
:1009B000249FC001259F900D349F900D11240E940B
:1009C00041040895DF93CF9300D00F920F92CDB7DB
:1009D000DEB7FC0129833A834B835C836D83242F2C
:1009E000309711F480E020C080819181A281B38191
:1009F0008093F0069093F106A093F206B093F3066D
:100A00004B83A4EFB6E0FE01319685E001900D9294
:100A10008150E1F7822F0E94C30381E00E94B1035D
:100A200081E00E94A80381E00F900F900F900F903B
:100A30000F90CF91DF91089584B1806E84B9A0E8C2
:100A4000B0E08C91886A8C93E1E8F0E0808180616D
:100A500080838081886080838C9182608C93808188
:100A6000826080834FE35CE9509387004093860067
:100A700028EE33E0309389002093880030938B0078
:100A800020938A0030938D0020938C006B9AA0E90C
:100A9000B0E08C9180688C93E1E9F0E0808188611E
:100AA00080838C9182608C9380818260808350935C
:100AB00097004093960030939900209398000895F2
:100AC000DF92EF92FF920F931F93D82E882777FD26
:100AD0008095982F0E948C0C20E030E044E353E492
:100AE0000E94500B20E030E04AEF54E40E94560A86
:100AF00020E030E04AEF53E40E94290A0E94EA0C09
:100B0000882777FD8095982F0E948C0C7B018C01A3
:100B100020E030E44CE155E40E94FC0B18165CF434
:100B20000F2EF0E0EF2EF0E4FF2EFCE10F2FF5E4A6
:100B30001F2FF02D14C0C801B70120E030E04AEFAC
:100B400053E40E945C0C882354F40F2EF0E0EF2E47
:100B5000F0E0FF2EFAEF0F2FF3E41F2FF02D84E0CB
:100B60008D15CCF11D1484F482E0D816D1F08D15CA
:100B700024F081E0D816D9F507C083E0D816F1F04B
:100B800084E0D816A1F527C0C801B701A8019701D4
:100B90000E94290A0E94800870938900609388004F
:100BA00026C0C801B701A80197010E94290A0E9426
:100BB000800870938B0060938A0019C0C801B70148
:100BC000A80197010E94290A0E94800870938D0055
:100BD00060938C000CC0C801B701A80197010E9466
:100BE000290A0E94800870939900609398001F91D1
:100BF0000F91FF90EF90DF900895E1E8F0E08081A1
:100C0000887F808308950E942B0808950E947608AB
:100C100008951F93182F80E00E94E907812F0E94FA
:100C200002081F9108951F93182F8CE30E94090654
:100C300080E00E942B08812F0E942B080E947608DA
:100C40001F9108950F931F93082F162F8830F0F4EB
:100C500067FD1CC08093FA066093FB0681E20E9448
:100C60001306812F0E9413068FE70E94130682E26B
:100C70000E941306802F0E94130687E00E9413062D
:100C80008CE30E94090680E40E942B081F910F91BB
:100C900008958091FA068F5F87708093FA0660E06E
:100CA0000E94220608950F931F93CF93DF93182F6E
:100CB0008091FB0690E08B37910514F41A3021F4F3
:100CC0000E9449061A3041F1812F805225E0829F0F
:100CD00080011124035F1B4F90E00196EC01CC0FC3
:100CE000DD1FCC0FDD1FC80FD91FC35FDB4FF8011D
:100CF00081918F010E942B088091FB068F5F80936A
:100D0000FB060C171D0799F780E00E942B088091C5
:100D1000FB068F5F8093FB06DF91CF911F910F91B0
:100D200008954F925F926F927F928F929F92AF92AF
:100D3000BF92CF92DF92EF92FF920F931F93DF93B8
:100D4000CF93CDB7DEB72C970FB6F894DEBF0FBEAA
:100D5000CDBF5A016B01E22E823021F51EC020E08A
:100D60008E2D90E00197A80102C0440F551F8A956F
:100D7000E2F7CA01AA2797FDA095BA2F8A219B21E5
:100D8000AC21BD210097A105B10509F021E0822F1A
:100D9000805D0E945306EA9402C001E010E0EE205C
:100DA000F1F653C0411551056105710551F010E090
:100DB0002E010894411C511C682E77248824992404
:100DC00033C000E004C080E30E9453060F5F0E159D
:100DD000E0F50A30C1F739C0A114B104C104D1044F
:100DE000D9F0FA2CC601B501A40193010E94CB0FE2
:100DF000C901DA015C016D01C201810F911D9C875F
:100E00008B87C601B501A40193010E94AC0FF61AAD
:100E1000EB85FC85F08207C0FAE0FE15A0F0F20138
:100E2000E10FF11D10821F5F1E15B0F20CC0FE0114
:100E3000E10FF11D80818A3010F0895C01C0805D76
:100E40000E9453061150112391F72C960FB6F89477
:100E5000DEBF0FBECDBFCF91DF911F910F91FF90ED
:100E6000EF90DF90CF90BF90AF909F908F907F904A
:100E70006F905F904F900895CF93DF93EC0103C084
:100E800021960E94530688818823D1F7DF91CF9164
:100E90000895883028F48093FA0660E00E942206C4
:100EA0000895CF93DF9381E20E94130680E00E94B1
:100EB00013068FE70E94130682E20E94130680E069
:100EC0000E94130687E00E9413068CE30E94090625
:100ED00080E40E942B08C0E0D0E080E00E942B0854
:100EE000219684E0C030D807C1F781E20E94130642
:100EF00080E00E9413068FE70E94130682E20E94A0
:100F0000130680E00E94130687E00E9413068CE31C
:100F10000E94090680E40E942B08DF91CF9108957A
:100F20000E94E0078EEA0E94130685ED0E941306D8
:100F300080E80E94130688EA0E9413068FE30E944D
:100F4000130683ED0E94130680E00E94130680E4DE
:100F50000E9413068DE80E94130684E10E94130686
:100F600080E20E94130680E00E94130681EA0E943C
:100F7000130688EC0E9413068AED0E94130682E194
:100F80000E94130681E80E9413068FEC0E9413064C
:100F900089ED0E94130681EF0E9413068BED0E94DB
:100FA000130680E40E94130684EA0E94130686EA70
:100FB0000E9413068FEA0E9413060E9451070895AB
:100FC000E9EBF0E080818C7F808383E18093B8003F
:100FD00008958093F9068091BC00846A8093BC00D8
:100FE0008091BC0087FFFCCF8091B90090E0887FA2
:100FF00090708830910521F0409711F08EEF0895A0
:101000008FEF08959091F906880F892B8093BB008C
:101010008091BC008F7D8093BC008091BC00806873
:101020008093BC008091BC0087FFFCCF992331F4F2
:101030008091B900887F883151F40BC0913011F054
:1010400080E008958091B900887F803411F08EEFA0
:1010500008958FEF08958093BB008091BC00806855
:101060008093BC008091BC0087FFFCCF8091B900C9
:10107000887F883211F08EEF08958FEF089592E304
:1010800006C08091BC0087FF02C08DEF089591508B
:10109000C0F78CEF0895882321F48091BC00806410
:1010A00003C08091BC008F7B8093BC008091BC000A
:1010B00080688093BC0092E304C08091BC0087FDEF
:1010C00002C09150D0F78091B90090E0887F907075
:1010D0008035910529F08835910529F08EEF089526
:1010E0008091BB0008958091BB0008958091BC0061
:1010F00080698093BC008091BC0084FFFCCF089580
:10110000EF92FF920F931F937B018C0120E030E060
:1011100040E05FE40E942C0C88238CF0C801B701EA
:1011200020E030E040E05FE40E94F8090E94EA0C11
:101130009B01AC01205030404040504806C0C801DF
:10114000B7010E94EA0C9B01AC01B901CA011F91D1
:101150000F91FF90EF900895A0E0B0E0E2EBF8E08F
:101160000C94ED0FDC012B01FA019C91923008F4F4
:1011700039C1EB018881823008F433C1943069F4BD
:10118000843009F02FC111969C911197898198178D
:1011900009F428C1A8EEB5E025C1843009F421C1C5
:1011A0008230A9F4923009F01DC19A01AD0188E0A6
:1011B000EA010990AE01E90109929E018150C1F74F
:1011C000E201898111969C918923818308C1923023
:1011D00009F407C112962D903C901397EB018A8178
:1011E0009B811496AD90BD90CD90DC901797EC80CC
:1011F000FD800E811F819101281B390BB90137FF3A
:1012000004C066277727621B730B603271050CF0F0
:1012100061C0121613066CF537014801062E04C092
:1012200096948794779467940A94D2F721E030E0FB
:1012300040E050E004C0220F331F441F551F6A9541
:10124000D2F721503040404050402E213F214023D2
:101250005123211531054105510521F021E030E0F0
:1012600040E050E079018A01E628F7280829192989
:101270003CC0232BD1F1260E371E35014601062E28
:1012800004C096948794779467940A94D2F721E0E7
:1012900030E040E050E004C0220F331F441F551FD0
:1012A0006A95D2F721503040404050402A213B21DE
:1012B0004C215D21211531054105510521F021E029
:1012C00030E040E050E059016A01A628B728C8285C
:1012D000D9280BC0821593052CF01C01AA24BB242D
:1012E000650103C0EE24FF24870111969C91D20171
:1012F00011968C91981709F445C0992339F0A801EB
:1013000097012A193B094C095D0906C0A601950100
:101310002E193F09400B510B57FD08C01182338233
:10132000228224833583468357831DC081E08183D5
:101330003382228288279927DC01821B930BA40B1E
:10134000B50B84839583A683B7830DC0220F331F0B
:10135000441F551F2483358346835783828193819D
:101360000197938382832481358146815781DA01F5
:10137000C9010197A109B1098F5F9F4FAF4FBF43CB
:1013800028F30BC0918333822282EA0CFB1C0C1DD4
:101390001D1DE482F5820683178383E08083248108
:1013A00035814681578157FF1AC0C901AA2797FD89
:1013B000A095BA2F81709070A070B0705695479527
:1013C00037952795822B932BA42BB52B848395835C
:1013D000A683B78382819381019693838283DF0101
:1013E00001C0D201CD01CDB7DEB7E2E10C94091006
:1013F000A0E2B0E0EEEFF9E00C94F90F69837A8394
:101400008B839C832D833E834F835887E9E0EE2EA8
:10141000F12CEC0EFD1ECE010196B7010E94DB0EF1
:101420008E010F5E1F4FCE010596B8010E94DB0EA4
:101430008A8991E089278A8BC701B801AE01475E8E
:101440005F4F0E94AC080E94060EA096E6E00C9446
:101450001510A0E2B0E0EFE2FAE00C94F90F698316
:101460007A838B839C832D833E834F835887F9E057
:10147000EF2EF12CEC0EFD1ECE010196B7010E945D
:10148000DB0E8E010F5E1F4FCE010596B8010E9444
:10149000DB0EC701B801AE01475E5F4F0E94AC088A
:1014A0000E94060EA096E6E00C941510A0E2B0E0B3
:1014B000ECE5FAE00C94ED0F69837A838B839C83CF
:1014C0002D833E834F835887CE010196BE01675F0F
:1014D0007F4F0E94DB0ECE010596BE016F5E7F4FEF
:1014E0000E94DB0E9985923088F089898230C8F09D
:1014F000943019F4823051F404C0843029F49230CD
:1015000081F488EE95E0C6C0923049F420E09A85D7
:101510008A89981321E02A87CE010996BBC08230C0
:1015200049F420E09A858A89981321E02A8BCE011C
:101530004196B0C02D843E844F8458886D887E8843
:101540008F88988CEE24FF248701AA24BB24650190
:1015500040E050E060E070E0E0E0F0E0C101817068
:101560009070892BE9F0E60CF71C081D191D9A01F3
:10157000AB012A0D3B1D4C1D5D1D80E090E0A0E0FD
:10158000B0E0E614F7040805190520F481E090E0C6
:10159000A0E0B0E0BA01A901480F591F6A1F7B1FE4
:1015A000AA0CBB1CCC1CDD1C97FE08C081E090E09F
:1015B000A0E0B0E0A82AB92ACA2ADB2A3196E03294
:1015C000F10549F0660C771C881C991C56944794C9
:1015D00037942794C3CFFA85EA892B893C898B8578
:1015E0009C85280F391F2E5F3F4F17C0CA0181709D
:1015F0009070892B61F016950795F794E79480E039
:1016000090E0A0E0B0E8E82AF92A0A2B1B2B769597
:101610006795579547952F5F3F4F77FDE7CF0CC0F4
:10162000440F551F661F771F17FD4160EE0CFF1C0E
:10163000001F111F21503040403090E0590790E0CA
:10164000690790E4790760F32B8F3C8FDB01CA01B7
:101650008F779070A070B07080349105A105B105AE
:1016600061F447FD0AC0E114F1040105110529F0F8
:10167000405C5F4F6F4F7F4F40781A8EFE1711F01E
:1016800081E08A8F4D8F5E8F6F8F78A383E0898F83
:10169000CE0149960E94060EA096E2E10C94091034
:1016A000A8E1B0E0E6E5FBE00C94F50F69837A83EE
:1016B0008B839C832D833E834F835887B9E0EB2E29
:1016C000F12CEC0EFD1ECE010196B7010E94DB0E3F
:1016D0008E010F5E1F4FCE010596B8010E94DB0EF2
:1016E0002985223008F47EC03989323010F4B801DF
:1016F0007CC08A859A8989278A87243011F0223014
:1017000031F4231709F06EC068EE75E06EC0343016
:1017100039F41D861E861F86188A1C861B8604C007
:10172000323021F484E08987B7015FC02B853C8586
:101730008B899C89281B390B3C872B87ED84FE8481
:101740000F851889AD88BE88CF88D88CEA14FB0431
:101750000C051D0540F4EE0CFF1C001F111F21504D
:1017600030403C872B8720E030E040E050E080E0D4
:1017700090E0A0E0B0E460E070E0EA14FB040C0547
:101780001D0540F0282B392B4A2B5B2BEA18FB0850
:101790000C091D09B695A79597958795EE0CFF1C2A
:1017A000001F111F6F5F7F4F6F31710531F7DA0135
:1017B000C9018F779070A070B07080349105A10539
:1017C000B10561F427FD0AC0E114F104010511051A
:1017D00029F0205C3F4F4F4F5F4F20782D873E8789
:1017E0004F87588BBE01675F7F4FCB010E94060E6B
:1017F0006896EAE00C941110A8E1B0E0E2E0FCE0A9
:101800000C94F90F69837A838B839C832D833E83A9
:101810004F83588789E0E82EF12CEC0EFD1ECE0197
:101820000196B7010E94DB0E8E010F5E1F4FCE01A5
:101830000596B8010E94DB0E8985823040F08989C7
:10184000823028F0C701B8010E94530F01C08FEF0A
:101850006896E6E00C941510A8E1B0E0E2E3FCE045
:101860000C94F90F69837A838B839C832D833E8349
:101870004F83588789E0E82EF12CEC0EFD1ECE0137
:101880000196B7010E94DB0E8E010F5E1F4FCE0145
:101890000596B8010E94DB0E8985823040F0898967
:1018A000823028F0C701B8010E94530F01C08FEFAA
:1018B0006896E6E00C941510A8E1B0E0E2E6FCE0E2
:1018C0000C94F90F69837A838B839C832D833E83E9
:1018D0004F83588789E0E82EF12CEC0EFD1ECE01D7
:1018E0000196B7010E94DB0E8E010F5E1F4FCE01E5
:1018F0000596B8010E94DB0E8985823040F0898907
:10190000823028F0C701B8010E94530F01C081E066
:101910006896E6E00C941510A8E0B0E0E2E9FCE07F
:101920000C94F60F9B01AC0183E08983DA01C901B5
:101930008827B7FD83959927AA27BB27B82E21159D
:1019400031054105510519F482E089833AC08823A5
:10195000A9F0203080E0380780E0480780E8580789
:1019600029F460E070E080E09FEC30C0EE24FF24BA
:101970008701E21AF30A040B150B02C079018A01F0
:101980008EE1C82ED12CDC82CB82ED82FE820F83C9
:101990001887C801B7010E94B70D019718161906DC
:1019A00084F4082E04C0EE0CFF1C001F111F0A94C3
:1019B000D2F7ED82FE820F831887C81AD90ADC821B
:1019C000CB82BA82CE0101960E94060E2896E9E0EB
:1019D0000C941210ACE0B0E0E0EFFCE00C94FD0FD2
:1019E00069837A838B839C83CE010196BE016B5FF2
:1019F0007F4F0E94DB0E8D81823061F1823050F189
:101A0000843021F48E81882351F12EC02F813885B6
:101A100037FD20C06E812F3131051CF06623F9F0AF
:101A200023C08EE190E0821B930B29853A854B857C
:101A30005C8504C056954795379527958A95D2F7CA
:101A40006623B1F050954095309521953F4F4F4F0B
:101A50005F4F0EC020E030E040E050E009C02FEFC3
:101A60003FEF4FEF5FE704C020E030E040E050E898
:101A7000B901CA012C96E2E00C941910A8E0B0E07C
:101A8000E4E4FDE00C94F50F7B018C016115710518
:101A90008105910519F482E0898360C083E0898320
:101AA0008EE1C82ED12CDC82CB82ED82FE820F83A8
:101AB0001887C801B7010E94B70DFC013197F7FFE5
:101AC0003BC0222733272E1B3F0B57016801022EF4
:101AD00004C0D694C794B794A7940A94D2F740E070
:101AE00050E060E070E081E090E0A0E0B0E004C091
:101AF000880F991FAA1FBB1F2A95D2F70197A1092A
:101B0000B1098E219F21A023B1230097A105B10522
:101B100021F041E050E060E070E04A295B296C2947
:101B20007D294D835E836F8378878EE190E08E1BE5
:101B30009F0B9C838B8312C0309781F00E2E04C0C4
:101B4000EE0CFF1C001F111F0A94D2F7ED82FE82DB
:101B50000F831887CE1ADF0ADC82CB821A82CE016D
:101B600001960E94060E2896EAE00C941110EF925E
:101B7000FF920F931F937B018C0180E0E81680E0B9
:101B8000F80681E0080780E0180788F48FEFE81670
:101B9000F1040105110531F028F088E090E0A0E0A3
:101BA000B0E017C080E090E0A0E0B0E012C080E0BC
:101BB000E81680E0F80680E0080781E0180728F0C2
:101BC00088E190E0A0E0B0E004C080E190E0A0E017
:101BD000B0E020E230E040E050E0281B390B4A0B37
:101BE0005B0B04C016950795F794E7948A95D2F796
:101BF000F701E051FA4F8081281B31094109510951
:101C0000C9011F910F91FF90EF900895DF92EF921D
:101C1000FF920F931F93FC01E480F58006811781EA
:101C2000D1808081823048F480E090E0A0E1B0E093
:101C3000E82AF92A0A2B1B2BA5C0843009F49FC07F
:101C4000823021F4EE24FF24870105C0E114F10461
:101C50000105110519F4E0E0F0E096C0628173819E
:101C60009FEF623879070CF05BC022E83FEF261B3C
:101C7000370B2A3131052CF020E030E040E050E015
:101C80002AC0B801A701022E04C076956795579522
:101C900047950A94D2F781E090E0A0E0B0E004C05C
:101CA000880F991FAA1FBB1F2A95D2F70197A10978
:101CB000B1098E219F21A023B1230097A105B10571
:101CC00021F081E090E0A0E0B0E09A01AB01282B88
:101CD000392B4A2B5B2BDA01C9018F779070A070EA
:101CE000B07080349105A105B10539F427FF09C012
:101CF000205C3F4F4F4F5F4F04C0215C3F4F4F4F21
:101D00005F4FE0E0F0E02030A0E03A07A0E04A07B3
:101D1000A0E45A0710F0E1E0F0E079018A0127C061
:101D20006038710564F5FB01E158FF4FD801C70128
:101D30008F779070A070B07080349105A105B105C7
:101D400039F4E7FE0DC080E490E0A0E0B0E004C00C
:101D50008FE390E0A0E0B0E0E80EF91E0A1F1B1F21
:101D600017FF05C016950795F794E794319687E01D
:101D700016950795F794E7948A95D1F705C0EE2458
:101D8000FF248701EFEFF0E06E2F679566276795D8
:101D9000902F9F77D794DD24D7948E2F8695492F47
:101DA000462B582F5D29B701CA011F910F91FF9053
:101DB000EF90DF900895FC01DB0140815181228189
:101DC000622F6F7770E0221F2227221F9381892FB5
:101DD000880F822B282F30E0991F9927991F119681
:101DE0009C93119721153105A9F541155105610500
:101DF000710511F482E037C082E89FEF13969C933F
:101E00008E9312979A01AB0167E0220F331F441F94
:101E1000551F6A95D1F783E08C930DC0220F331FB5
:101E2000441F551F12968D919C91139701971396FD
:101E30009C938E931297203080E0380780E048070B
:101E400080E4580758F314962D933D934D935C937B
:101E5000179708952F3F310579F441155105610514
:101E6000710519F484E08C93089564FF03C081E048
:101E70008C9312C01C9210C02F57304013963C9385
:101E80002E93129783E08C9387E0440F551F661FB3
:101E9000771F8A95D1F7706414964D935D936D9377
:101EA0007C93179708951F93DC01FB019C9192305E
:101EB00008F447C08081823008F443C0943051F464
:101EC00011961C91843099F58181682F70E0611B17
:101ED00071093FC0843021F0923031F48230B9F181
:101EE0008181882389F12DC011961C911197823030
:101EF000F1F081811817D9F412962D913C91139726
:101F0000828193818217930794F028173907BCF0D8
:101F100014968D919D910D90BC91A02D24813581B9
:101F200046815781281739074A075B0718F41123A0
:101F300041F00AC082179307A407B50740F41123A4
:101F400019F061E070E005C06FEF7FEF02C060E064
:101F500070E0CB011F910895629FD001739FF00143
:101F6000829FE00DF11D649FE00DF11D929FF00D29
:101F7000839FF00D749FF00D659FF00D9927729F60
:101F8000B00DE11DF91F639FB00DE11DF91FBD01EB
:101F9000CF0111240895A1E21A2EAA1BBB1BFD013B
:101FA0000DC0AA1FBB1FEE1FFF1FA217B307E40738
:101FB000F50720F0A21BB30BE40BF50B661F771F90
:101FC000881F991F1A9469F7609570958095909570
:101FD0009B01AC01BD01CF0108952F923F924F921A
:101FE0005F926F927F928F929F92AF92BF92CF92A9
:101FF000DF92EF92FF920F931F93CF93DF93CDB7B2
:10200000DEB7CA1BDB0B0FB6F894DEBF0FBECDBF29
:1020100019942A88398848885F846E847D848C84EA
:102020009B84AA84B984C884DF80EE80FD800C8103
:102030001B81AA81B981CE0FD11D0FB6F894DEBFE6
:102040000FBECDBFED010895FC0188279927E894C4
:1020500021912032E9F3293010F02E30C8F32B32D1
:1020600041F02D3239F4689404C00E945410820F5C
:10207000911D219120532A30C0F31EF49095819533
:102080009F4F0895FB01DC010D900020E9F71197A7
:1020900001900D920020E1F70895FB01DC01019011
:1020A0000D920020E1F708957AE0979F902D879F89
:1020B000802D910D112408950F931F93DF93CF93DB
:1020C000CDB7DEB72E970FB6F894DEBF0FBECDBFEB
:1020D0000E891F8986E08C831A8309838FEF9FE71F
:1020E0009E838D839E01265E3F4FCE010196688DB3
:1020F000798DA9010E948D102F813885020F131F41
:10210000F80110822E960FB6F894DEBF0FBECDBF39
:10211000CF91DF911F910F9108952F923F924F928F
:102120005F926F927F928F929F92AF92BF92CF9267
:10213000DF92EF92FF920F931F93DF93CF93CDB770
:10214000DEB72B970FB6F894DEBF0FBECDBF3C01B4
:102150002B015A01FC0117821682838181FD03C085
:102160006FEF7FEFC6C19AE0892E1E010894211CF3
:10217000311CF3012381F20123FD859123FF81911D
:102180002F01882309F4B2C1853239F423FD8591EA
:1021900023FF81912F01853229F490E0B3010E9441
:1021A000A912E7CF982FFF24EE249924FFE1FF1511
:1021B000D0F09B3269F09C3228F4903259F093327F
:1021C00091F40EC09D3249F0903369F441E024C08F
:1021D00052E0F52A84E0F82A28C098E0F92A25C0C0
:1021E000E0E1FE2A22C0F7FC29C0892F80538A3003
:1021F00070F4F6FE05C0989C902C1124980E15C022
:10220000E89CE02C1124E80EF0E2FF2A0EC09E327A
:1022100029F4F6FC6BC140E4F42A07C09C3619F49B
:1022200050E8F52A02C0983649F4F20123FD959151
:1022300023FF91912F01992309F0B8CF892F85545D
:10224000833018F08052833038F444E050E0A40E1C
:10225000B51E5FE359830FC0933631F0933779F0A1
:10226000933509F056C020C0F5018081898342E092
:1022700050E0A40EB51E610101E010E012C0F501AE
:10228000C080D180F6FC03C06FEF7FEF02C0692DE4
:1022900070E042E050E0A40EB51EC6010E949E12FE
:1022A0008C015FE7F52214C0F501C080D180F6FCF7
:1022B00003C06FEF7FEF02C0692D70E042E050E095
:1022C000A40EB51EC6010E9493128C0150E8F52A97
:1022D000F3FE07C01AC080E290E0B3010E94A91289
:1022E000EA948E2D90E008171907A8F30EC0F601A6
:1022F000F7FC8591F7FE81916F0190E0B3010E9498
:10230000A912E110EA94015010400115110579F766
:10231000EAC0943611F0993669F5F7FE08C0F50168
:10232000208131814281538184E090E00AC0F5012F
:10233000808191819C01442737FD4095542F82E094
:1023400090E0A80EB91E9FE6F92257FF09C05095EC
:102350004095309521953F4F4F4F5F4FE0E8FE2A63
:10236000CA01B901A1012AE030E00E94D512D82E9D
:10237000D21840C0953729F41F2D1F7E2AE030E087
:102380001DC01F2D197F9F3661F0903720F49835BE
:1023900009F0ACC00FC0903739F0983709F0A6C0EB
:1023A00004C028E030E00AC0106114FD146020E190
:1023B00030E004C014FD166020E132E017FF08C0D1
:1023C000F501608171818281938144E050E008C011
:1023D000F50180819181BC0180E090E042E050E015
:1023E000A40EB51EA1010E94D512D82ED2188FE7D7
:1023F000F82EF122F6FE0BC05EEFF522D91438F468
:10240000F4FE07C0F2FC05C08FEEF82202C01D2DBD
:1024100001C0192DF4FE0DC0FE01ED0DF11D8081EE
:10242000803319F499EEF92208C01F5FF2FE05C04F
:1024300003C08F2D867809F01F5F0F2DF3FC14C0A9
:10244000F0FE0FC01E1510F09D2C0BC09D2C9E0C95
:10245000911A1E2D06C080E290E0B3010E94A912DD
:102460001F5F1E15C0F304C01E1510F4E11A01C051
:10247000EE2404FF0FC080E390E0B3010E94A91294
:1024800002FF1DC001FD03C088E790E00EC088E593
:1024900090E00BC0802F867891F001FF02C08BE2A4
:1024A00001C080E2F7FC8DE290E0B3010E94A91226
:1024B00006C080E390E0B3010E94A9129A94D91457
:1024C000C0F3DA94F101ED0DF11D808190E0B301CC
:1024D0000E94A912DD20A9F706C080E290E0B301B6
:1024E0000E94A912EA94EE20C1F743CEF30166815F
:1024F0007781CB012B960FB6F894DEBF0FBECDBF10
:10250000CF91DF911F910F91FF90EF90DF90CF90CF
:10251000BF90AF909F908F907F906F905F904F9003
:102520003F902F900895FC0105906150704001107C
:10253000D8F7809590958E0F9F1F0895FC016150EC
:10254000704001900110D8F7809590958E0F9F1FD5
:1025500008950F931F93CF93DF938C01EB018B8131
:1025600081FF1BC082FF0DC02E813F818C819D8128
:102570002817390764F4E881F9810193F983E88326
:1025800006C0E885F985802F1995892B31F48E8155
:102590009F8101969F838E8302C00FEF1FEFC801BA
:1025A000DF91CF911F910F910895FA01AA2728304A
:1025B00051F1203181F1E8946F936E7F6E5F7F4F10
:1025C0008F4F9F4FAF4FB1E03ED0B4E03CD0670F8C
:1025D000781F891F9A1FA11D680F791F8A1F911DDF
:1025E000A11D6A0F711D811D911DA11D20D009F42F
:1025F00068943F912AE0269F11243019305D319371
:10260000DEF6CF010895462F4770405D4193B3E059
:102610000FD0C9F7F6CF462F4F70405D4A3318F000
:10262000495D31FD4052419302D0A9F7EACFB4E0B1
:10263000A6959795879577956795BA95C9F7009769
:102640006105710508959B01AC010A2E069457950A
:10265000479537952795BA95C9F7620F731F841F61
:0A266000951FA01D0895F894FFCF08
:10266A00496E7075743A2000496E697469616C69C3
:10267A007A696E672E2E2E00496E76616C69642027
:10268A00696E7075742E20496E707574206C6F6E49
:10269A00676572207468616E20746872656520636C
:1026AA006861726163746572732E200D0A00496E47
:1026BA0070757420746F6F206C6F6E672E00496E90
:1026CA0076616C696420696E7075742E2020456E7F
:1026DA0074657220612063617264206E756D626533
:1026EA007220666F6C6C6F776564206279207468FB
:1026FA00652072656164657220796F7520776F75E0
:10270A006C64206C696B6520697420746F20626543
:10271A0020726561642062792E20452E672E203151
:10272A0041206F72203031412E0D0A00496E636FCD
:10273A00727265637420466F726D61742E00652E25
:10274A00672E20303141206F7220314100496E7668
:10275A00616C696420696E7075742E2045697468AD
:10276A00657220796F757220696E70757420636165
:10277A007264206E756D626572206973206F75745C
:10278A00206F6620626F756E64732C206F722079D9
:10279A006F7527766520656E7465726564206120A1
:1027AA0076616C756520776974682074686520772E
:1027BA00726F6E6720666F726D61742E2000456EAF
:1027CA0074657220612063617264206E756D626542
:1027DA007220666F6C6C6F7765642062792074680A
:1027EA00652072656164657220796F7520776F75EF
:1027FA006C64206C696B6520697420746F20626553
:10280A0020726561642062792E20452E672E203160
:10281A0041206F72203031412E200D0A004361722F
:10282A00642076616C7565206F7574206F6600622E
:10283A006F756E647320312D31362E000D0A0043F8
:10284A0061726420256420746F2072656164657208
:10285A0020256300C80001C80031323341343536BF
:10286A0042373839432A3023449500C40000000017
:10287A00000000002F00000007000700147F147FEB
:10288A0014242A7F2A1223130864623649552250D7
:10289A000005030000001C2241000041221C001414
:1028AA00083E081408083E08080000A0600008084E
:1028BA00080808006060000020100804023E514920
:1028CA00453E00427F400042615149462141454B05
:1028DA00311814127F1027454545393C4A49493079
:1028EA0001710905033649494936064949291E0035
:1028FA00363600000056360000081422410014142F
:10290A0014141400412214080201510906324959CB
:10291A00513E7C1211127C7F494949363E41414160
:10292A00227F4141221C7F494949417F0909090106
:10293A003E4149497A7F0808087F00417F410020CB
:10294A0040413F017F081422417F404040407F02BE
:10295A000C027F7F0408107F3E4141413E7F0909F6
:10296A0009063E4151215E7F0919294646494949CE
:10297A003101017F01013F4040403F1F2040201F9D
:10298A003F4038403F631408146307087008076122
:10299A0051494543007F41410055AA55AA55004176
:1029AA00417F000402010204404040404000030508
:1029BA00000020545454787F4844443838444444EE
:1029CA0020384444487F3854545418087E09010278
:1029DA0018A4A4A47C7F0804047800447D40004025
:1029EA0080847D007F1028440000417F40007C04E1
:1029FA001804787C080404783844444438FC2424B5
:102A0A00241818242418FC7C080404084854545434
:102A1A0020043F4440203C4040207C1C2040201C95
:102A2A003C4030403C44281028441CA0A0A07C44D0
:102A3A0064544C4400107C82000000FF00000082B5
:102A4A007C100000060909060000000000000000D2
:102A5A00000102020303030304040404040404043B
:102A6A00050505050505050505050505050505050C
:102A7A0006060606060606060606060606060606EC
:102A8A0006060606060606060606060606060606DC
:102A9A0007070707070707070707070707070707BC
:102AAA0007070707070707070707070707070707AC
:102ABA00070707070707070707070707070707079C
:102ACA00070707070707070707070707070707078C
:102ADA00080808080808080808080808080808086C
:102AEA00080808080808080808080808080808085C
:102AFA00080808080808080808080808080808084C
:102B0A00080808080808080808080808080808083B
:102B1A00080808080808080808080808080808082B
:102B2A00080808080808080808080808080808081B
:102B3A00080808080808080808080808080808080B
:102B4A0008080808080808080808080808080808FB
:00000001FF
