:100000000C9472000C9493000C9493000C94930045
:100010000C9493000C9493000C9493000C94930014
:100020000C9493000C9493000C9493000C94930004
:100030000C9493000C9493000C9493000C949300F4
:100040000C9493000C9493000C9493000C949300E4
:100050000C9493000C9493000C9493000C949300D4
:100060000C9493000C9493000C9493000C949300C4
:100070000C9493000C9493000C9493000C949300B4
:100080000C9493000C9493000C9493000C949300A4
:100090000C9493000C9493000C9493000C94930094
:1000A0000C9493000C9493000C9493000C94930084
:1000B0000C9493000C9493000C9493000C94930074
:1000C0000C9493000C9493000C9493000C94930064
:1000D0000C9493000C9493000C9493000C94930054
:1000E0000C94930011241FBECFEFD1E2DEBFCDBF31
:1000F00000E00CBF1BE0A0E0B2E0EEE2FBE200E0BB
:100100000BBF02C007900D92AE31B107D9F71BE0CB
:10011000AEE1BBE001C01D92AA32B107E1F70E9437
:10012000A6020C9495150C940000382F80B390E033
:10013000032E02C0959587950A94E2F780FD0BC0C7
:1001400020B381E090E0032E02C0880F991F0A942B
:10015000E2F7282B20BB662359F021B381E090E021
:1001600002C0880F991F3A95E2F7282B21BB08950A
:1001700021B381E090E002C0880F991F3A95E2F721
:100180008095822381BB0895AF92BF92CF92DF9278
:10019000EF92FF920F931F930E94700F5B016C010F
:1001A0002BEA3AEA4AEA50E40E94880C7B018C016F
:1001B00020E030E040E85FE30E948E0E882314F4D4
:1001C00061E054C0C801B70120E030E04FE753E4DC
:1001D0000E942E0E18160CF045C0C601B50120E095
:1001E00030E04AE754E40E94820D5B016C0120E09C
:1001F00030E04AE755E40E94880C7B018C0120E046
:1002000030E040E85FE30E948E0E88231CF461E03A
:1002100070E024C0C801B70120E03FEF4FE757E48A
:100220000E942E0E1816B4F4C601B50120E030E08D
:1002300040E251E40E94880C0E94B20A80E991E0F9
:1002400005C0FC013197F1F76150704061157105EF
:10025000C1F70EC0C801B7010E94B20ACB010197D5
:10026000F1F706C0C801B7010E94B20A6A95F1F71A
:100270001F910F91FF90EF90DF90CF90BF90AF90C4
:1002800008958AEA81B98FEF82B9089580E090E0FD
:10029000AAE1BC0182B18A6A82B9613049F0613059
:1002A00028F0623039F0633041F406C0119805C07F
:1002B000139803C0159801C017988A2F8A95F1F7F3
:1002C00080B1049902C040E001C042E0009902C040
:1002D00030E001C034E0029902C020E001C028E013
:1002E00090E056E0969587955A95E1F78170482BF6
:1002F000432B422B20E030E050E0CA01022E02C026
:10030000959587950A94E2F780FD0DC0FB01EE0FED
:10031000FF1FEE0FFF1FE20FF31FE95DFB4F808110
:10032000882379F405C02F5F3F4F2430310529F72A
:10033000CB01019660E070E08430910509F4AACF0A
:10034000A8CF0895EF92FF921F93CF93DF93EC0114
:1003500083E00E945A0980E092E00E944D0910E07B
:1003600060E9E62E61E0F62E0E9446018A3241F4F1
:100370000E948309DF91CF911F91FF90EF90089524
:10038000833221F4112369F0115007C0153048F46D
:10039000FE01E10FF11D80831F5FFE01E10FF11DE2
:1003A000108288E092E00E944D0984E00E945A0980
:1003B000CE010E944D098CEA9DE0F7013197F1F7DB
:1003C0000197D9F7D1CFCF92DF92EF92FF920F939F
:1003D0001F93CF93DF937C016B0181E00E94D504D2
:1003E00081E1E816F10424F0A0E1EA2EF12C06C028
:1003F0001E141F041CF0F1E0EF2EF12CF601808199
:100400009181E701C81BD90BC930D10514F0609761
:1004100005C0FFEFC83FDF070CF460960E94C204DE
:100420008C010E94BF0490E0809FB001819F700DFD
:10043000909F700D112480E090E024E630E040E0D1
:1004400050E00E94DE11E4E09695879577956795D8
:10045000EA95D1F7FE01D7FF04C0EE27FF27EC1B7A
:10046000FD0B9F01442737FD4095542F0E94DE115C
:1004700024E630E040E050E00E9410121C161D06F9
:1004800024F4C90160E070E005C0CD2B29F0C9015A
:1004900061E070E00E946505F601F182E082DF9183
:1004A000CF911F910F91FF90EF90DF90CF90089523
:1004B0001F93182F62E370E00E94710780EA9FE0AB
:1004C00020E931E0F9013197F1F70197D9F7812F50
:1004D00060E070E00E94710788EE93E020E931E06F
:1004E000F9013197F1F70197D9F71F9108951F93FB
:1004F000623479F063341CF4613429F408C0633445
:1005000059F0643461F081E090E011E00EC011E038
:1005100008C0049712E005C0089713E002C00C97CA
:1005200014E0181619060CF04096BA010E94E30177
:1005300088EE93E020E931E0F9013197F1F7019776
:10054000D9F7812F0E9458021F9108952F923F9250
:100550004F925F926F927F928F929F92AF92BF92D3
:10056000CF92DF92EF92FF920F931F93DF93CF937F
:10057000CDB7DEB7C156D0400FB6F894DEBF0FBE80
:10058000CDBF0E94C20984E00E945A0987E394E02B
:100590000E9462090E94770487E398E02091220478
:1005A0003091230440912404509125046091260445
:1005B0000E94E3060E942B078AEA81B98FEF82B975
:1005C00082E390E00E94BA0488EC90E00E94B504B7
:1005D00084E00E94B20484E00E94E70480E29EE48A
:1005E00020E931E0F9013197F1F70197D9F781E07E
:1005F00090E09A83898372E2472E512C4C0E5D1E47
:1006000066E0C62ED12CCC0EDD1E50E9652E51E0E1
:10061000752E42E4842E912C8C0E9D1E5E01089452
:10062000A11CB11C39E3232E32E0332E0E94830932
:1006300080E00E94D50481E00E945A0900D000D0D9
:10064000EDB7FEB73196ADB7BEB712965C924E923B
:1006500011978EE092E09383828389819A819583BA
:1006600084830E94BE12ADB7BEB716960FB6F8943B
:10067000BEBF0FBEADBFC2010E944D091E82C601A2
:100680000E94A201F60101900020E9F77F01089481
:10069000E108F108EC18FD08C6016BE172E00E9468
:1006A000A612009719F421E4F22E2BC0C6016FE1C7
:1006B00072E00E94A612009719F492E4F92E21C06C
:1006C000C60163E272E00E94A6128C01009741F01D
:1006D000C60167E272E00E94A612009709F058C0B6
:1006E000012B19F483E4F82E0CC0C60167E272E016
:1006F0000E94A612009719F404E4F02E02C018E537
:10070000F12E83E00E945A098BE292E00E944D098B
:1007100000D000D0EDB7FEB731968E01025F1F4FBB
:10072000ADB7BEB712961C930E93119733822282F7
:100730008E81992787FD9095958384830E94BE12B0
:10074000EDB7FEB736960FB6F894FEBF0FBEEDBFFD
:1007500085E00E945A09C8010E944D0901E010E09D
:10076000C8016F2DA5010E947702C80163E070E007
:100770000E94FD11892B31F484E090E060E070E08C
:100780000E9465050F5F1F4F0131110549F74ECFDC
:10079000F2E0EF16F10491F480E38A871B868E0164
:1007A000065F1F4FC801B6010E949B12C601B80127
:1007B0000E94AF12B3E0EB2EF12C0EC084E0E816DD
:1007C000F10454F083E492E00E94890483E00E94E3
:1007D0005A0989E792E01BC0A5E0B0E0AC0FBD1F4D
:1007E000EA0EFB1EF70180818154843098F08CE87A
:1007F00092E00E94890483E00E945A098AEF92E005
:100800000E944D0985E00E945A098CE093E00E9405
:100810004D0965C0C6010E9489048BE193E00E94E6
:1008200089048E818B838F818C831D82CE010396F8
:100830000E947D127C0101974097F0F08EE193E0D9
:100840000E9489048FE893E00E94890483E00E945B
:100850005A098EEE93E00E944D0985E00E945A09E4
:1008600080E094E00E944D0988E59BE1F301319717
:10087000F1F70197D9F7DACE18858DB79EB70897AB
:100880000FB6F8949EBF0FBE8DBFEDB7FEB7319681
:10089000ADB7BEB712969C928E9211978DE094E000
:1008A00093838283F582E482812F992787FD909537
:1008B000978386830E94BE12ADB7BEB718960FB657
:1008C000F894BEBF0FBEADBF84E00E945A09C401B8
:1008D0000E944D09C701612FA5010E94770288E897
:1008E00093E1F3013197F1F70197D9F79FCE88E0B3
:1008F0008093C10086E08093C20087E68093C400A5
:100900000895982F8091C00085FFFCCF9093C6007A
:100910000895FC0107C08091C00085FFFCCF31968F
:100920009093C60090819923B1F708951092A0008A
:10093000E1EAF0E088E08083808182608083109229
:10094000A5001092A4000895880F991F1092A50089
:100950001092A4009093A9008093A800C99AC99B03
:10096000FECF08958093240B08959093230B8093DA
:10097000220B08959093260B8093250B0895809168
:10098000240B08958091220B9091230B0895809160
:10099000250B9091260B0895682FE0911E0BF09186
:1009A0001F0B83E090E019950895682FE0911E0BCE
:1009B000F0911F0B82E090E019950895682FE09167
:1009C0001E0BF0911F0B87E090E01995089584307D
:1009D00051F1853030F4813071F0823009F074C00B
:1009E00012C0803109F43FC0803209F455C088300C
:1009F00009F06AC020C0E0911E0BF0911F0B86E049
:100A000090E060E007C0E0911E0BF0911F0B86E0C4
:100A100090E061E01995E0911E0BF0911F0B85E0CD
:100A200090E060E017C0E0911E0BF0911F0B86E094
:100A300090E060E007C0E0911E0BF0911F0B86E094
:100A400090E061E01995E0911E0BF0911F0B85E09D
:100A500090E061E01995E0911E0BF0911F0B84E08E
:100A600090E060E017C0E0911E0BF0911F0B86E054
:100A700090E060E01995E0911E0BF0911F0B85E06E
:100A800090E060E01995E0911E0BF0911F0B84E05F
:100A900090E061E019950895E0911E0BF0911F0B15
:100AA00086E090E061E01995E0911E0BF0911F0B3C
:100AB00085E090E061E01995E0911E0BF0911F0B2D
:100AC00084E090E061E0199508952F923F924F9253
:100AD0005F926F927F928F929F92AF92BF92CF92CE
:100AE000DF92EF92FF920F931F93DF93CF93CDB7D7
:100AF000DEB728970FB6F894DEBF0FBECDBF9E833A
:100B00008D83672B41F4E0911E0BF0911F0B80E069
:100B100090E060E007C0E0911E0BF0911F0B80E0B9
:100B200090E061E0199585E38A95F1F72091250B16
:100B30003091260B8091220B9091230BA901489FA5
:100B40009001499F300D589F300D11248091240B46
:100B500090E0F901E89F9001E99F300DF89F300D7A
:100B6000112440E050E060E077E883E993E00E94E0
:100B7000101259016A0118861F82EAC0E0911E0B0B
:100B8000F0911F0B81E090E061E01995C601B5017D
:100B90000E94700F69837A838B839C832BEA3AEAE5
:100BA0004AEA50E40E94880C1B012C0120E030E04E
:100BB00040E85FE30E948E0E882314F461E055C084
:100BC000C201B10120E030E04FE753E40E942E0E55
:100BD00018160CF046C069817A818B819C8120E0D7
:100BE00030E04AE754E40E94820D3B014C0120E0D2
:100BF00030E04AE755E40E94880C7B018C0120E03C
:100C000030E040E85FE30E948E0E88231CF461E030
:100C100070E023C0C801B70120E03FEF4FE757E481
:100C20000E942E0E1816ACF4C401B30120E030E08F
:100C300040E251E40E94880C0E94B20A06C080E99A
:100C400091E00197F1F76150704061157105B9F7B6
:100C50000EC0C801B7010E94B20ACB010197F1F79B
:100C600006C0C201B1010E94B20A6A95F1F7E09193
:100C70001E0BF0911F0B81E090E060E01995C2011E
:100C8000B10120E030E040E85FE30E948E0E88234F
:100C900014F461E055C0C201B10120E030E04FE73B
:100CA00053E40E942E0E18160CF046C069817A811A
:100CB0008B819C8120E030E04AE754E40E94820D61
:100CC0003B014C0120E030E04AE755E40E94880CEB
:100CD0007B018C0120E030E040E85FE30E948E0E53
:100CE00088231CF461E070E023C0C801B70120E054
:100CF0003FEF4FE757E40E942E0E1816ACF4C401E4
:100D0000B30120E030E040E251E40E94880C0E94F0
:100D1000B20A06C080E991E00197F1F76150704096
:100D200061157105B9F70EC0C801B7010E94B20A7A
:100D3000CB010197F1F706C0C201B1010E94B20ACE
:100D40006A95F1F72F8138852F5F3F4F38872F83C2
:100D50004F8158858D819E814817590708F40ECF21
:100D600028960FB6F894DEBF0FBECDBFCF91DF91AE
:100D70001F910F91FF90EF90DF90CF90BF90AF90B9
:100D80009F908F907F906F905F904F903F902F90AB
:100D900008952091240B30E04091220B5091230BB9
:100DA000F901E49F9001E59F300DF49F300D11246F
:100DB000AC01249FC001259F900D349F900D1124FC
:100DC0000E9465050895DF93CF9300D00F920F9294
:100DD000CDB7DEB7FC0129833A834B835C836D83F7
:100DE000242F309711F480E02EC080819181A28160
:100DF000B38180931E0B90931F0BA093200BB09395
:100E0000210B4B83A2E2BBE0FE01319685E001900D
:100E10000D928150E1F7822F0E94E70481E00E9449
:100E2000D50481E00E94CC041092A00088E0809359
:100E3000A1008091A10082608093A1001092A50082
:100E40001092A40081E00F900F900F900F900F90E0
:100E5000CF91DF91089584B1806E84B9A0E8B0E0AD
:100E60008C91886A8C93E1E8F0E0808180618083D6
:100E70008081886080838C9182608C938081826085
:100E800080834FE35CE9509387004093860028EE0F
:100E900033E0309389002093880030938B002093B7
:100EA0008A008DB188618DB9A0E9B0E08C91806A2B
:100EB0008C93E1E9F0E08081886180838C9182608D
:100EC0008C9380818260808350939700409396003A
:100ED000309399002093980030939B0020939A00C0
:100EE0000895DF92EF92FF920F931F93D82E8827D9
:100EF00077FD8095982F0E94BE0E20E030E044E3FD
:100F000053E40E94820D20E030E04AEF54E40E9456
:100F1000880C20E030E04AEF53E40E945B0C0E9412
:100F20001C0F882777FD8095982F0E94BE0E7B01AD
:100F30008C0120E030E44CE155E40E942E0E18169E
:100F40005CF40F2EF0E0EF2EF0E4FF2EFCE10F2F0B
:100F5000F5E41F2FF02D14C0C801B70120E030E0E8
:100F60004AEF53E40E948E0E882354F40F2EF0E0D3
:100F7000EF2EF0E0FF2EFAEF0F2FF3E41F2FF02DEE
:100F800084E08D15CCF11D1484F482E0D816D1F0E4
:100F90008D1524F081E0D816D9F507C083E0D81666
:100FA000F1F084E0D816A1F527C0C801B701A80167
:100FB00097010E945B0C0E94B20A709389006093B3
:100FC000880026C0C801B701A80197010E945B0CE8
:100FD0000E94B20A70938B0060938A0019C0C80106
:100FE000B701A80197010E945B0C0E94B20A70939E
:100FF0009B0060939A000CC0C801B701A80197013B
:101000000E945B0C0E94B20A709399006093980052
:101010001F910F91FF90EF90DF900895E1E8F0E0CD
:101020008081887F808308950E945D0A08950E94D0
:10103000A80A08951F93182F80E00E941B0A812F91
:101040000E94340A1F9108951F93182F8CE30E9469
:101050001A0880E00E945D0A812F0E945D0A0E94AA
:10106000A80A1F9108950F931F93082F162F8830F9
:10107000F0F467FD1CC08093280B6093290B81E27C
:101080000E942408812F0E9424088FE70E942408D0
:1010900082E20E942408802F0E94240887E00E9498
:1010A00024088CE30E941A0880E40E945D0A1F91C4
:1010B0000F9108958091280B8F5F87708093280B84
:1010C00060E00E94330808950F931F93CF93DF933E
:1010D000182F8091290B90E08B37910514F41A306A
:1010E00021F40E945A081A3041F1812F805225E0E4
:1010F000829F80011124055C174F90E00196EC015E
:10110000CC0FDD1FCC0FDD1FC80FD91FC55CD74F1B
:10111000F80181918F010E945D0A8091290B8F5FF8
:101120008093290B0C171D0799F780E00E945D0A38
:101130008091290B8F5F8093290BDF91CF911F91B5
:101140000F9108954F925F926F927F928F929F922C
:10115000AF92BF92CF92DF92EF92FF920F931F93C5
:10116000DF93CF93CDB7DEB72C970FB6F894DEBFE1
:101170000FBECDBF5A016B01E22E823021F51EC099
:1011800020E08E2D90E00197A80102C0440F551F6A
:101190008A95E2F7CA01AA2797FDA095BA2F8A215E
:1011A0009B21AC21BD210097A105B10509F021E0EB
:1011B000822F805D0E946408EA9402C001E010E082
:1011C000EE20F1F653C0411551056105710551F04E
:1011D00010E02E010894411C511C682E77248824AD
:1011E000992433C000E004C080E30E9464080F5FCC
:1011F0000E15E0F50A30C1F739C0A114B104C104DD
:10120000D104D9F0FA2CC601B501A40193010E94C2
:101210001012C901DA015C016D01C201810F911D3B
:101220009C878B87C601B501A40193010E94DE1142
:10123000F61AEB85FC85F08207C0FAE0FE15A0F0F7
:10124000F201E10FF11D10821F5F1E15B0F20CC0FC
:10125000FE01E10FF11D80818A3010F0895C01C030
:10126000805D0E9464081150112391F72C960FB6EF
:10127000F894DEBF0FBECDBFCF91DF911F910F91CC
:10128000FF90EF90DF90CF90BF90AF909F908F90A6
:101290007F906F905F904F900895CF93DF93EC0114
:1012A00003C021960E94640888818823D1F7DF91CA
:1012B000CF910895883028F48093280B60E00E9435
:1012C000330808950F931F93CF93DF938C0180E031
:1012D00060E00E9433088CE30E941A0880E40E94B8
:1012E0005D0AC0E0D0E0F801EC0FFD1F80810E9494
:1012F0005D0A219684E0C030D807A9F7DF91CF912D
:101300001F910F910895CF93DF9381E20E942408EB
:1013100080E00E9424088FE70E94240882E20E9455
:10132000240880E00E94240887E00E9424088CE3BF
:101330000E941A0880E40E945D0AC0E0D0E080E0CC
:101340000E945D0A219684E0C030D807C1F781E28F
:101350000E94240880E00E9424088FE70E9424084D
:1013600082E20E94240880E00E94240887E00E9414
:1013700024088CE30E941A0880E40E945D0ADF9131
:10138000CF9108950E94120A8EEA0E94240885EDEA
:101390000E94240880E80E94240888EA0E94240809
:1013A0008FE30E94240883ED0E94240880E00E94BD
:1013B000240880E40E9424088DE80E94240884E127
:1013C0000E94240880E20E94240880E00E942408F1
:1013D00081EA0E94240888EC0E9424088AED0E9479
:1013E000240882E10E94240881E80E9424088FECEE
:1013F0000E94240889ED0E94240881EF0E9424089D
:101400008BED0E94240880E40E94240884EA0E9454
:10141000240886EA0E9424088FEA0E9424080E9479
:1014200083090895E9EBF0E080818C7F808383E17C
:101430008093B80008958093270B8091BC00846A44
:101440008093BC008091BC0087FFFCCF8091B900E5
:1014500090E0887F90708830910521F0409711F0DE
:101460008EEF08958FEF08959091270B880F892BA9
:101470008093BB008091BC008F7D8093BC008091E5
:10148000BC0080688093BC008091BC0087FFFCCFCB
:10149000992331F48091B900887F883151F40BC0D1
:1014A000913011F080E008958091B900887F8034F8
:1014B00011F08EEF08958FEF08958093BB00809117
:1014C000BC0080688093BC008091BC0087FFFCCF8B
:1014D0008091B900887F883211F08EEF08958FEFE8
:1014E000089592E306C08091BC0087FF02C08DEF93
:1014F00008959150C0F78CEF0895882321F48091CE
:10150000BC00806403C08091BC008F7B8093BC00D2
:101510008091BC0080688093BC0092E304C08091FD
:10152000BC0087FD02C09150D0F78091B90090E0D7
:10153000887F90708035910529F08835910529F0D4
:101540008EEF08958091BB0008958091BB000895AF
:101550008091BC0080698093BC008091BC0084FFB6
:10156000FCCF0895EF92FF920F931F937B018C01A4
:1015700020E030E040E05FE40E945E0E88238CF0C3
:10158000C801B70120E030E040E05FE40E942A0C8F
:101590000E941C0F9B01AC0120503040404050483D
:1015A00006C0C801B7010E941C0F9B01AC01B90124
:1015B000CA011F910F91FF90EF900895A0E0B0E055
:1015C000E4EEFAE00C944612DC012B01FA019C9146
:1015D000923008F439C1EB018881823008F433C1BC
:1015E000943069F4843009F02FC111969C911197C1
:1015F0008981981709F428C1A6E1BAE025C1843091
:1016000009F421C18230A9F4923009F01DC19A0178
:10161000AD0188E0EA010990AE01E90109929E015D
:101620008150C1F7E201898111969C9189238183C0
:1016300008C1923009F407C112962D903C9013977F
:10164000EB018A819B811496AD90BD90CD90DC908A
:101650001797EC80FD800E811F819101281B390BAB
:10166000B90137FF04C066277727621B730B60320E
:1016700071050CF061C0121613066CF537014801B4
:10168000062E04C096948794779467940A94D2F7B0
:1016900021E030E040E050E004C0220F331F441F3F
:1016A000551F6A95D2F721503040404050402E21BE
:1016B0003F2140235123211531054105510521F0DA
:1016C00021E030E040E050E079018A01E628F72887
:1016D000082919293CC0232BD1F1260E371E3501CC
:1016E0004601062E04C096948794779467940A94D2
:1016F000D2F721E030E040E050E004C0220F331F79
:10170000441F551F6A95D2F7215030404040504049
:101710002A213B214C215D2121153105410551052F
:1017200021F021E030E040E050E059016A01A628B4
:10173000B728C828D9280BC0821593052CF01C01A6
:10174000AA24BB24650103C0EE24FF24870111965F
:101750009C91D20111968C91981709F445C0992358
:1017600039F0A80197012A193B094C095D0906C007
:10177000A60195012E193F09400B510B57FD08C0DA
:1017800011823382228224833583468357831DC08E
:1017900081E081833382228288279927DC01821BA2
:1017A000930BA40BB50B84839583A683B7830DC0DD
:1017B000220F331F441F551F2483358346835783CD
:1017C000828193810197938382832481358146812D
:1017D0005781DA01C9010197A109B1098F5F9F4FB4
:1017E000AF4FBF4328F30BC0918333822282EA0CB0
:1017F000FB1C0C1D1D1DE482F5820683178383E00C
:101800008083248135814681578157FF1AC0C901E1
:10181000AA2797FDA095BA2F81709070A070B07024
:101820005695479537952795822B932BA42BB52B4F
:1018300084839583A683B783828193810196938362
:101840008283DF0101C0D201CD01CDB7DEB7E2E175
:101850000C946212A0E2B0E0E0E3FCE00C945212BF
:1018600069837A838B839C832D833E834F83588740
:10187000E9E0EE2EF12CEC0EFD1ECE010196B70133
:101880000E940D118E010F5E1F4FCE010596B8010B
:101890000E940D118A8991E089278A8BC701B801BE
:1018A000AE01475E5F4F0E94DE0A0E943810A0968C
:1018B000E6E00C946E12A0E2B0E0E1E6FCE00C94ED
:1018C000521269837A838B839C832D833E834F835B
:1018D0005887F9E0EF2EF12CEC0EFD1ECE0101969B
:1018E000B7010E940D118E010F5E1F4FCE010596AC
:1018F000B8010E940D11C701B801AE01475E5F4FEC
:101900000E94DE0A0E943810A096E6E00C946E1247
:10191000A0E2B0E0EEE8FCE00C94461269837A8322
:101920008B839C832D833E834F835887CE01019602
:10193000BE01675F7F4F0E940D11CE010596BE016B
:101940006F5E7F4F0E940D119985923088F08989D2
:101950008230C8F0943019F4823051F404C08430DD
:1019600029F4923081F486E19AE0C6C0923049F4BD
:1019700020E09A858A89981321E02A87CE0109966A
:10198000BBC0823049F420E09A858A89981321E00F
:101990002A8BCE014196B0C02D843E844F84588856
:1019A0006D887E888F88988CEE24FF248701AA2476
:1019B000BB24650140E050E060E070E0E0E0F0E072
:1019C000C10181709070892BE9F0E60CF71C081DAD
:1019D000191D9A01AB012A0D3B1D4C1D5D1D80E0B8
:1019E00090E0A0E0B0E0E614F7040805190520F443
:1019F00081E090E0A0E0B0E0BA01A901480F591FD2
:101A00006A1F7B1FAA0CBB1CCC1CDD1C97FE08C0E8
:101A100081E090E0A0E0B0E0A82AB92ACA2ADB2A37
:101A20003196E032F10549F0660C771C881C991C50
:101A30005694479437942794C3CFFA85EA892B8923
:101A40003C898B859C85280F391F2E5F3F4F17C01F
:101A5000CA0181709070892B61F016950795F794F3
:101A6000E79480E090E0A0E0B0E8E82AF92A0A2BA9
:101A70001B2B76956795579547952F5F3F4F77FDC1
:101A8000E7CF0CC0440F551F661F771F17FD41603D
:101A9000EE0CFF1C001F111F21503040403090E021
:101AA000590790E0690790E4790760F32B8F3C8F2A
:101AB000DB01CA018F779070A070B07080349105FF
:101AC000A105B10561F447FD0AC0E114F104010567
:101AD000110529F0405C5F4F6F4F7F4F40781A8EA1
:101AE000FE1711F081E08A8F4D8F5E8F6F8F78A384
:101AF00083E0898FCE0149960E943810A096E2E1DA
:101B00000C946212A8E1B0E0E8E8FDE00C944E12FB
:101B100069837A838B839C832D833E834F8358878D
:101B2000B9E0EB2EF12CEC0EFD1ECE010196B701B3
:101B30000E940D118E010F5E1F4FCE010596B80158
:101B40000E940D112985223008F47EC03989323077
:101B500010F4B8017CC08A859A8989278A87243045
:101B600011F0223031F4231709F06EC066E17AE0FB
:101B70006EC0343039F41D861E861F86188A1C8676
:101B80001B8604C0323021F484E08987B7015FC02E
:101B90002B853C858B899C89281B390B3C872B879F
:101BA000ED84FE840F851889AD88BE88CF88D88CD7
:101BB000EA14FB040C051D0540F4EE0CFF1C001F8D
:101BC000111F215030403C872B8720E030E040E05F
:101BD00050E080E090E0A0E0B0E460E070E0EA1463
:101BE000FB040C051D0540F0282B392B4A2B5B2BE1
:101BF000EA18FB080C091D09B695A79597958795D6
:101C0000EE0CFF1C001F111F6F5F7F4F6F317105BE
:101C100031F7DA01C9018F779070A070B07080340D
:101C20009105A105B10561F427FD0AC0E114F10495
:101C30000105110529F0205C3F4F4F4F5F4F207881
:101C40002D873E874F87588BBE01675F7F4FCB0143
:101C50000E9438106896EAE00C946A12A8E1B0E09D
:101C6000E4E3FEE00C94521269837A838B839C83B5
:101C70002D833E834F83588789E0E82EF12CEC0EAC
:101C8000FD1ECE010196B7010E940D118E010F5E5F
:101C90001F4FCE010596B8010E940D118985823033
:101CA00040F08989823028F0C701B8010E9485116F
:101CB00001C08FEF6896E6E00C946E12A8E1B0E0E8
:101CC000E4E6FEE00C94521269837A838B839C8352
:101CD0002D833E834F83588789E0E82EF12CEC0E4C
:101CE000FD1ECE010196B7010E940D118E010F5EFF
:101CF0001F4FCE010596B8010E940D1189858230D3
:101D000040F08989823028F0C701B8010E9485110E
:101D100001C08FEF6896E6E00C946E12A8E1B0E087
:101D2000E4E9FEE00C94521269837A838B839C83EE
:101D30002D833E834F83588789E0E82EF12CEC0EEB
:101D4000FD1ECE010196B7010E940D118E010F5E9E
:101D50001F4FCE010596B8010E940D118985823072
:101D600040F08989823028F0C701B8010E948511AE
:101D700001C081E06896E6E00C946E12A8E0B0E045
:101D8000E4ECFEE00C944F129B01AC0183E08983EC
:101D9000DA01C9018827B7FD83959927AA27BB27B0
:101DA000B82E211531054105510519F482E08983CA
:101DB0003AC08823A9F0203080E0380780E0480747
:101DC00080E8580729F460E070E080E09FEC30C0C4
:101DD000EE24FF248701E21AF30A040B150B02C05C
:101DE00079018A018EE1C82ED12CDC82CB82ED8272
:101DF000FE820F831887C801B7010E94E90F01977F
:101E00001816190684F4082E04C0EE0CFF1C001FDF
:101E1000111F0A94D2F7ED82FE820F831887C81A29
:101E2000D90ADC82CB82BA82CE0101960E94381098
:101E30002896E9E00C946B12ACE0B0E0E2E2FFE03F
:101E40000C94561269837A838B839C83CE0101960E
:101E5000BE016B5F7F4F0E940D118D81823061F159
:101E6000823050F1843021F48E81882351F12EC0CC
:101E70002F81388537FD20C06E812F3131051CF050
:101E80006623F9F023C08EE190E0821B930B298535
:101E90003A854B855C8504C05695479537952795BF
:101EA0008A95D2F76623B1F05095409530952195EB
:101EB0003F4F4F4F5F4F0EC020E030E040E050E01A
:101EC00009C02FEF3FEF4FEF5FE704C020E030E0A5
:101ED00040E050E8B901CA012C96E2E00C9472127D
:101EE000A8E0B0E0E6E7FFE00C944E127B018C0125
:101EF000611571058105910519F482E0898360C03F
:101F000083E089838EE1C82ED12CDC82CB82ED82E6
:101F1000FE820F831887C801B7010E94E90FFC01F8
:101F20003197F7FF3BC0222733272E1B3F0B57016A
:101F30006801022E04C0D694C794B794A7940A945B
:101F4000D2F740E050E060E070E081E090E0A0E097
:101F5000B0E004C0880F991FAA1FBB1F2A95D2F7B3
:101F60000197A109B1098E219F21A023B1230097D8
:101F7000A105B10521F041E050E060E070E04A29A0
:101F80005B296C297D294D835E836F8378878EE181
:101F900090E08E1B9F0B9C838B8312C0309781F047
:101FA0000E2E04C0EE0CFF1C001F111F0A94D2F766
:101FB000ED82FE820F831887CE1ADF0ADC82CB8285
:101FC0001A82CE0101960E9438102896EAE00C94FD
:101FD0006A12EF92FF920F931F937B018C0180E0B6
:101FE000E81680E0F80681E0080780E0180788F42A
:101FF0008FEFE816F1040105110531F028F088E0B3
:1020000090E0A0E0B0E017C080E090E0A0E0B0E099
:1020100012C080E0E81680E0F80680E0080781E062
:10202000180728F088E190E0A0E0B0E004C080E16B
:1020300090E0A0E0B0E020E230E040E050E0281B7B
:10204000390B4A0B5B0B04C016950795F794E79480
:102050008A95D2F7F701E25EF54F8081281B31099E
:1020600041095109C9011F910F91FF90EF90089507
:10207000DF92EF92FF920F931F93FC01E480F580B3
:1020800006811781D1808081823048F480E090E021
:10209000A0E1B0E0E82AF92A0A2B1B2BA5C0843066
:1020A00009F49FC0823021F4EE24FF24870105C08B
:1020B000E114F1040105110519F4E0E0F0E096C027
:1020C000628173819FEF623879070CF05BC022E870
:1020D0003FEF261B370B2A3131052CF020E030E092
:1020E00040E050E02AC0B801A701022E04C0769556
:1020F0006795579547950A94D2F781E090E0A0E064
:10210000B0E004C0880F991FAA1FBB1F2A95D2F701
:102110000197A109B1098E219F21A023B123009726
:10212000A105B10521F081E090E0A0E0B0E09A01C6
:10213000AB01282B392B4A2B5B2BDA01C9018F7796
:102140009070A070B07080349105A105B10539F48C
:1021500027FF09C0205C3F4F4F4F5F4F04C0215CF9
:102160003F4F4F4F5F4FE0E0F0E02030A0E03A07F4
:10217000A0E04A07A0E45A0710F0E1E0F0E079019E
:102180008A0127C06038710564F5FB01E158FF4FF3
:10219000D801C7018F779070A070B070803491051E
:1021A000A105B10539F4E7FE0DC080E490E0A0E0A0
:1021B000B0E004C08FE390E0A0E0B0E0E80EF91ECC
:1021C0000A1F1B1F17FF05C016950795F794E79484
:1021D000319687E016950795F794E7948A95D1F79D
:1021E00005C0EE24FF248701EFEFF0E06E2F679526
:1021F00066276795902F9F77D794DD24D7948E2FED
:102200008695492F462B582F5D29B701CA011F918A
:102210000F91FF90EF90DF900895FC01DB0140816A
:1022200051812281622F6F7770E0221F2227221FA7
:102230009381892F880F822B282F30E0991F9927AF
:10224000991F11969C93119721153105A9F54115F8
:1022500051056105710511F482E037C082E89FEFF6
:1022600013969C938E9312979A01AB0167E0220F0D
:10227000331F441F551F6A95D1F783E08C930DC01F
:10228000220F331F441F551F12968D919C91139757
:10229000019713969C938E931297203080E0380715
:1022A00080E0480780E4580758F314962D933D9337
:1022B0004D935C93179708952F3F310579F441159D
:1022C00051056105710519F484E08C93089564FF4C
:1022D00003C081E08C9312C01C9210C02F57304075
:1022E00013963C932E93129783E08C9387E0440FD0
:1022F000551F661F771F8A95D1F7706414964D930A
:102300005D936D937C93179708951F93DC01FB01F8
:102310009C91923008F447C08081823008F443C019
:10232000943051F411961C91843099F58181682F75
:1023300070E0611B71093FC0843021F0923031F4AC
:102340008230B9F18181882389F12DC011961C91C9
:1023500011978230F1F081811817D9F412962D91DE
:102360003C911397828193818217930794F02817E9
:102370003907BCF014968D919D910D90BC91A02DC4
:102380002481358146815781281739074A075B0721
:1023900018F4112341F00AC082179307A407B50768
:1023A00040F4112319F061E070E005C06FEF7FEF9A
:1023B00002C060E070E0CB011F910895629FD001E0
:1023C000739FF001829FE00DF11D649FE00DF11DF0
:1023D000929FF00D839FF00D749FF00D659FF00D9F
:1023E0009927729FB00DE11DF91F639FB00DE11D8C
:1023F000F91FBD01CF011124089597FB092E07266F
:102400000AD077FD04D02ED006D000201AF47095A3
:1024100061957F4F0895F6F7909581959F4F0895A8
:10242000A1E21A2EAA1BBB1BFD010DC0AA1FBB1FD8
:10243000EE1FFF1FA217B307E407F50720F0A21B4A
:10244000B30BE40BF50B661F771F881F991F1A94B7
:1024500069F760957095809590959B01AC01BD01E1
:10246000CF010895AA1BBB1B51E107C0AA1FBB1FC8
:10247000A617B70710F0A61BB70B881F991F5A9510
:10248000A9F780959095BC01CD0108952F923F92B8
:102490004F925F926F927F928F929F92AF92BF9274
:1024A000CF92DF92EF92FF920F931F93CF93DF9320
:1024B000CDB7DEB7CA1BDB0B0FB6F894DEBF0FBE7D
:1024C000CDBF19942A88398848885F846E847D84BA
:1024D0008C849B84AA84B984C884DF80EE80FD80CC
:1024E0000C811B81AA81B981CE0FD11D0FB6F89442
:1024F000DEBF0FBECDBFED010895FC0188279927EF
:10250000E89421912032E9F3293010F02E30C8F3FD
:102510002B3241F02D3239F4689404C00E94B61277
:10252000820F911D219120532A30C0F31EF4909503
:1025300081959F4F0895FB01DC010D900020E9F784
:10254000119701900D920020E1F70895FB01DC0145
:102550008D91019080190110D9F3990B0895FB0119
:10256000DC0101900D920020E1F708957AE0979F39
:10257000902D879F802D910D112408950F931F9307
:10258000DF93CF93CDB7DEB72E970FB6F894DEBFAB
:102590000FBECDBF0E891F8986E08C831A83098305
:1025A0008FEF9FE79E838D839E01265E3F4FCE0176
:1025B0000196688D798DA9010E94EF122F813885CF
:1025C000020F131FF80110822E960FB6F894DEBF8B
:1025D0000FBECDBFCF91DF911F910F9108952F9224
:1025E0003F924F925F926F927F928F929F92AF92A3
:1025F000BF92CF92DF92EF92FF920F931F93DF93E0
:10260000CF93CDB7DEB72B970FB6F894DEBF0FBED2
:10261000CDBF3C012B015A01FC0117821682838138
:1026200081FD03C06FEF7FEFC6C19AE0892E1E01C6
:102630000894211C311CF3012381F20123FD8591B3
:1026400023FF81912F01882309F4B2C1853239F427
:1026500023FD859123FF81912F01853229F490E09C
:10266000B3010E940B15E7CF982FFF24EE24992485
:10267000FFE1FF15D0F09B3269F09C3228F49032D4
:1026800059F0933291F40EC09D3249F0903369F4C1
:1026900041E024C052E0F52A84E0F82A28C098E0FE
:1026A000F92A25C0E0E1FE2A22C0F7FC29C0892FC3
:1026B00080538A3070F4F6FE05C0989C902C11244B
:1026C000980E15C0E89CE02C1124E80EF0E2FF2AD9
:1026D0000EC09E3229F4F6FC6BC140E4F42A07C018
:1026E0009C3619F450E8F52A02C0983649F4F201F4
:1026F00023FD959123FF91912F01992309F0B8CFE4
:10270000892F8554833018F08052833038F444E0A8
:1027100050E0A40EB51E5FE359830FC0933631F02D
:10272000933779F0933509F056C020C0F5018081C8
:10273000898342E050E0A40EB51E610101E010E083
:1027400012C0F501C080D180F6FC03C06FEF7FEFAF
:1027500002C0692D70E042E050E0A40EB51EC60133
:102760000E9400158C015FE7F52214C0F501C080BE
:10277000D180F6FC03C06FEF7FEF02C0692D70E0DF
:1027800042E050E0A40EB51EC6010E94F5148C0173
:1027900050E8F52AF3FE07C01AC080E290E0B301CA
:1027A0000E940B15EA948E2D90E008171907A8F3E4
:1027B0000EC0F601F7FC8591F7FE81916F0190E064
:1027C000B3010E940B15E110EA940150104001156D
:1027D000110579F7EAC0943611F0993669F5F7FEDC
:1027E00008C0F501208131814281538184E090E06D
:1027F0000AC0F501808191819C01442737FD4095F5
:10280000542F82E090E0A80EB91E9FE6F92257FFF0
:1028100009C050954095309521953F4F4F4F5F4FE0
:10282000E0E8FE2ACA01B901A1012AE030E00E94D5
:102830003715D82ED21840C0953729F41F2D1F7E8A
:102840002AE030E01DC01F2D197F9F3661F09037C0
:1028500020F4983509F0ACC00FC0903739F09837A4
:1028600009F0A6C004C028E030E00AC0106114FDE1
:10287000146020E130E004C014FD166020E132E075
:1028800017FF08C0F501608171818281938144E066
:1028900050E008C0F50180819181BC0180E090E0AA
:1028A00042E050E0A40EB51EA1010E943715D82EBB
:1028B000D2188FE7F82EF122F6FE0BC05EEFF5225C
:1028C000D91438F4F4FE07C0F2FC05C08FEEF822EC
:1028D00002C01D2D01C0192DF4FE0DC0FE01ED0D2D
:1028E000F11D8081803319F499EEF92208C01F5F31
:1028F000F2FE05C003C08F2D867809F01F5F0F2DF3
:10290000F3FC14C0F0FE0FC01E1510F09D2C0BC080
:102910009D2C9E0C911A1E2D06C080E290E0B30102
:102920000E940B151F5F1E15C0F304C01E1510F486
:10293000E11A01C0EE2404FF0FC080E390E0B30170
:102940000E940B1502FF1DC001FD03C088E790E047
:102950000EC088E590E00BC0802F867891F001FFD3
:1029600002C08BE201C080E2F7FC8DE290E0B3018F
:102970000E940B1506C080E390E0B3010E940B1586
:102980009A94D914C0F3DA94F101ED0DF11D808110
:1029900090E0B3010E940B15DD20A9F706C080E28C
:1029A00090E0B3010E940B15EA94EE20C1F743CEEC
:1029B000F30166817781CB012B960FB6F894DEBFC9
:1029C0000FBECDBFCF91DF911F910F91FF90EF9080
:1029D000DF90CF90BF90AF909F908F907F906F903F
:1029E0005F904F903F902F900895FC0105906150AB
:1029F00070400110D8F7809590958E0F9F1F089515
:102A0000FC016150704001900110D8F780959095BD
:102A10008E0F9F1F08950F931F93CF93DF938C0109
:102A2000EB018B8181FF1BC082FF0DC02E813F8196
:102A30008C819D812817390764F4E881F98101931D
:102A4000F983E88306C0E885F985802F1995892BDD
:102A500031F48E819F8101969F838E8302C00FEF98
:102A60001FEFC801DF91CF911F910F910895FA01D7
:102A7000AA27283051F1203181F1E8946F936E7FBD
:102A80006E5F7F4F8F4F9F4FAF4FB1E03ED0B4E0AE
:102A90003CD0670F781F891F9A1FA11D680F791FEF
:102AA0008A1F911DA11D6A0F711D811D911DA11D00
:102AB00020D009F468943F912AE0269F1124301910
:102AC000305D3193DEF6CF010895462F4770405DAB
:102AD0004193B3E00FD0C9F7F6CF462F4F70405D5A
:102AE0004A3318F0495D31FD4052419302D0A9F7B5
:102AF000EACFB4E0A6959795879577956795BA95AF
:102B0000C9F700976105710508959B01AC010A2E74
:102B100006945795479537952795BA95C9F7620F4B
:0E2B2000731F841F951FA01D0895F894FFCF0A
:102B2E00496E7075743A20002020202020004361E9
:102B3E00726420617420413A256400414141004293
:102B4E004242004343430044444400416C6C2063C2
:102B5E006172647320746F20005265616465722027
:102B6E00256300496E76616C696420696E707574B8
:102B7E002E20496E707574206C6F6E6765722074AE
:102B8E0068616E2074687265652063686172616346
:102B9E00746572732E200D0A004D617820696E7077
:102BAE00757420332063686172732E00496E7661EE
:102BBE006C696420696E7075742E2020456E746584
:102BCE007220612063617264206E756D6265722081
:102BDE00666F6C6C6F77656420627920746865200F
:102BEE0072656164657220796F7520776F756C649C
:102BFE00206C696B6520697420746F206265207289
:102C0E006561642062792E20452E672E2031412089
:102C1E006F72203031412E0D0A00496E636F727251
:102C2E0065637420466F726D61742E00652E672E7B
:102C3E0020303141206F72203141000D0A00496E63
:102C4E0076616C696420696E7075742E20456974A6
:102C5E0068657220796F757220696E707574206365
:102C6E00617264206E756D626572206973206F7576
:102C7E0074206F6620626F756E64732C206F7220E5
:102C8E00796F7527766520656E746572656420614F
:102C9E002076616C7565207769746820746865208C
:102CAE0077726F6E6720666F726D61742E200045AD
:102CBE006E74657220612063617264206E756D6240
:102CCE00657220666F6C6C6F776564206279207414
:102CDE0068652072656164657220796F7520776F03
:102CEE00756C64206C696B6520697420746F20624A
:102CFE006520726561642062792E20452E672E2034
:102D0E003141206F72203031412E200D0A00436177
:102D1E0072642076616C7565206F7574206F660025
:102D2E00626F756E647320312D31362E00436172E1
:102D3E006420256420746F2072656164657220259D
:102D4E006300C80001C80031323341343536423792
:102D5E003839432A302344000000000000000000F0
:102D6E000000000000000000000000000000000055
:102D7E000000000000000000000000000000000045
:102D8E000000000000000000000000000000000035
:102D9E000000000000000000000000000000000025
:102DAE000000000000000000000000000000000015
:102DBE0000000000000000000000E0F0000000F83D
:102DCE00800000F8E000C0C00020000000000000FD
:102DDE0000000000000000000000000000000000E5
:102DEE0000000000000000000000000000000000D5
:102DFE0000000000000000000000000000000000C5
:102E0E0000000000000000000000000000000000B4
:102E1E0000000000000000000000000000000000A4
:102E2E000000000000000000000000000000000094
:102E3E0020D81C0080A8A90200E07F730000F4E5F2
:102E4E00E7000019EFF3E1E000F0300C0C0380C056
:102E5E00A060000000000000000000000000000064
:102E6E000000000000000000000000000000000054
:102E7E000000000000000000000000000000000044
:102E8E000000000000000000000000000000000034
:102E9E000000000000000000000000000000000024
:102EAE00000000000000000000000000000004040C
:102EBE0083404836040900605AFD3D0380787FF751
:102ECE00F30000FFFFA9FF200300005848B70000E1
:102EDE000040A0A0000000000000000000FEBE00A8
:102EEE000080C0A0E06060E060C0000000F6FDE081
:102EFE006020208060C00000E0E0E0606060E0E004
:102F0E00C00000C0A0606060602000008040A02073
:102F1E0040406060800000C060E0604060E060C0E3
:102F2E000000000000000000000000000000141C63
:102F3E000502C3A0A82A7E2C0703A0F867FDFF197F
:102F4E0001E07CDFFEFB1B40003EFC89C9840000D3
:102F5E002404AB260000000000000000E0DFF300B8
:102F6E00003F7FD9E0C080A0BF7F1B0000BDCF0017
:102F7E000000000073BD0000FFCFFF00000084FFC3
:102F8E00D60000C3C7C6C6BCDC7800043F7BE0C0D9
:102F9E00C0C0E07F3F060018EFBF00000000FEFD3E
:102FAE000000000000000000000000000000000013
:102FBE000707050581A0C0F8C6671F170580E078D2
:102FCE00AEEFFFED0F1F0181608080070D16001020
:102FDE0000000000000000000000030203000000DB
:102FEE000000000000000000008040E0E0E0E0A0F3
:102FFE00E0C0000000000000000000000000000023
:10300E0000000000000000000000C0800000000072
:10301E0000000000000000000000000000000000A2
:10302E000000000070A00000000000000000000082
:10303E0000000000000000010000080C0E1B1F0F16
:10304E00030203040100000001020201000000005F
:10305E000000000000000000000000000000000062
:10306E0000000000000000F8BFFF03000000000099
:10307E000000E0D0D81C0C0C081CFCF8E000F89CFA
:10308E00FC0C0E060A7CF800000CFF6E0C0C0C00FB
:10309E0000F89CFC0C0E0E0090B81C0E020A0CDC04
:1030AE00C8E00000CE73000078DC24CE4E80000015
:1030BE000000000000000000000000000000000002
:1030CE0000000000000000000000000000000000F2
:1030DE0000000000000000000000000000000000E2
:1030EE00000000000000000001070F1C1C18101843
:1030FE00180C00070D1E1818101C0F0703001F17C1
:10310E001F000000001F1F0000000F0F1C181010E2
:10311E00001F1F1D00000000070A1E1018081C0BC0
:10312E00030300001D0E0000181818181D0F0700CD
:10313E000000000000000000000000000000000081
:10314E000000000000000000000000000000000071
:10315E00000000000000009500C400000000000008
:10316E0000002F00000007000700147F147F1424B6
:10317E002A7F2A122313086462364955225000050D
:10318E00030000001C2241000041221C0014083ED6
:10319E00081408083E08080000A060000808080887
:1031AE0008006060000020100804023E5149453EB0
:1031BE0000427F400042615149462141454B311842
:1031CE0014127F1027454545393C4A494930017153
:1031DE000905033649494936064949291E0036363E
:1031EE000000005636000008142241001414141476
:1031FE001400412214080201510906324959513E68
:10320E007C1211127C7F494949363E414141227F51
:10321E004141221C7F494949417F090909013E412B
:10322E0049497A7F0808087F00417F4100204041CC
:10323E003F017F081422417F404040407F020C0234
:10324E007F7F0408107F3E4141413E7F09090906F8
:10325E003E4151215E7F09192946464949493101AE
:10326E00017F01013F4040403F1F2040201F3F4053
:10327E0038403F631408146307087008076151490A
:10328E004543007F41410055AA55AA550041417F53
:10329E0000040201020440404040400003050000CB
:1032AE0020545454787F4844443838444444203899
:1032BE004444487F3854545418087E09010218A417
:1032CE00A4A47C7F0804047800447D4000408084E0
:1032DE007D007F1028440000417F40007C041804CC
:1032EE00787C080404783844444438FC2424241898
:1032FE0018242418FC7C0804040848545454200450
:10330E003F4440203C4040207C1C2040201C3C4040
:10331E0030403C44281028441CA0A0A07C44645497
:10332E004C4400107C82000000FF000000827C10E4
:10333E000000060909060000000000000000000160
:10334E000202030303030404040404040404050535
:10335E00050505050505050505050505050506060D
:10336E0006060606060606060606060606060606EF
:10337E0006060606060606060606060606060707DD
:10338E0007070707070707070707070707070707BF
:10339E0007070707070707070707070707070707AF
:1033AE00070707070707070707070707070707079F
:1033BE00070707070707070707070707070708088D
:1033CE00080808080808080808080808080808086F
:1033DE00080808080808080808080808080808085F
:1033EE00080808080808080808080808080808084F
:1033FE00080808080808080808080808080808083F
:10340E00080808080808080808080808080808082E
:10341E00080808080808080808080808080808081E
:10342E00080808080808080808080808080808080E
:0E343E00080808080808080808080808080810
:00000001FF
